:100000000C9441020C94FA0D0C94CF0D0C94A40D99
:100010000C94790D0C944E0D0C94230D0C94F80C4B
:100020000C94CD0C0C9472020C9472020C9472021B
:100030000C9472020C9472020C9472020C94720270
:100040000C9472020C9472020C9472020C94720260
:100050000C9472020C9472020C9472020C94830C35
:100060000C9472020C94B0070C9486070C947202E4
:100070000C9472020C9472020C9472020C94720230
:100080000C9472020C9472020C9472020C94720220
:100090000C9472020C9472020C9472020C94720210
:1000A0000C9472020C9472020C9472020C94720200
:1000B0000C9472020C9472020C9472020C947202F0
:1000C0000C9472020C9472020C94E6070C94720267
:1000D0000C9472020C9472020C9472020C947202D0
:1000E0000C947202E209E509D409D809DC091C0A5A
:1000F000E909ED09F309F709FB09010A050A090AEB
:100100001C0A0F0A130A170A960A9B0AA00AAA0ACF
:10011000B40A2D0BBE0AC60ACE0AD80AE20AEC0AB5
:10012000FB0A050B2D0B0F0B190B230B084AD73BB2
:100130003BCE016E84BCBFFDC12F3D6C74319ABDB6
:1001400056833DDA3D00C77F11BED9E4BB4C3E91DA
:100150006BAAAABE000000803F05A84CCDB2D44EC9
:10016000B93836A9020C50B9918688083CA6AAAACB
:100170002ABE000000803F000C94D8090C94CE0ADF
:100180000C94010A0C94190B0C94090A0C94710438
:100190000C94F3090C946E080C94EC0A0C949B0AD2
:1001A0000C9467040C94FB090C94E2090C9455041C
:1001B0000C94A7080C9412080C9473040C94E1029C
:1001C0000C945B040C94AA0A0C94BE0A0C94A60826
:1001D0000C94C60A0C94D4090C946F080C94570F15
:1001E0000C94F7090C94FB0A0C94130A0C947108F4
:1001F0000C94D80A0C94A9020C9461040C946D041C
:100200000C946F040C94960A0C94170A0C94DC0955
:100210000C9449040C94E20A0C94ED090C94B40A71
:100220000C94050B0C9487020C94050A0C94E509B8
:100230000C9478020C94230B0C940F0B0C949B02DF
:100240000C9411080C942E030C940F0A0C942D0B93
:100250000C94E9090C941C0A0C944F040C945F0F45
:100260000C94A00A00407A10F35A00A0724E1809AC
:100270000010A5D4E80000E87648170000E40B540D
:10028000020000CA9A3B000000E1F50500008096DC
:100290009800000040420F000000A086010000000E
:1002A000102700000000E8030000000064000000C8
:1002B00000000A00000000000100000000002C7691
:1002C000D888DC674F0823DFC1DFAE59E1B1B796AC
:1002D000E5E3E453C63AE651997696E8E6C2842609
:1002E000EB898C9B62ED407C6FFCEFBC9C9F40F2E5
:1002F000BAA56FA5F490055A2AF75C936B6CF96761
:100300006DC11BFCE0E40D47FEF520E6B500D0ED25
:10031000902E0300943577050080841E080000208D
:100320004E0A000000C80C333333330F986E12832B
:100330001141EF8D2114893BE65516CFFEE6DB18FF
:10034000D1844B381BF77C1D901DA4BBE4242032C4
:1003500084725E228100C9F124ECA1E53D270000F2
:1003600020002300260029002C002F00320000016D
:1003700000000301060109010000210024002700FC
:100380002A002D00300033000101000004010701A4
:100390000A0100002200250028002B002E00310059
:1003A000340002010000050108010B0105050505E7
:1003B000070508080808020202020A0A08080404DD
:1003C000040401010101010101010303030303030B
:1003D0000303040707070C0C0C0C0C0C0C0C02029A
:1003E000020206060606060606060B0B0B0B0B0B97
:1003F0000B0B010210202008081020401020408024
:1004000002010201080402010102040810204080D8
:100410008040201008040201800402018040201066
:1004200008040201080402010102040810204080AF
:10043000010204081020408000000A0B02090C0D84
:100440000E08070304010000000000000000000087
:10045000000000000000000000000000000000009C
:100460000000000012111000000000000000000059
:1004700000000000000000000000000000005F0F0E
:10048000570F11241FBECFEFD1E2DEBFCDBF00E07A
:100490000CBF23E0A6E5B2E001C01D92AA3EB20760
:1004A000E1F712E0A0E0B2E0E6EAFFE200E00BBF15
:1004B00002C007900D92A635B107D9F712E0C0E44B
:1004C000D2E000E006C021970109802FFE010E94C2
:1004D0009E15CF33D10780E00807A9F70E94250EAB
:1004E0000C94C1170C940000089580E090E00895EA
:1004F000FC01538D448D252F30E0842F90E0821B2A
:10050000930B541710F0CF96089501970895FC01AE
:10051000918D828D981761F0828DDF01A80FB11D3A
:100520005D968C91928D9F5F9F73928F90E008955E
:100530008FEF9FEF0895FC01918D828D981731F018
:10054000828DE80FF11D858D90E008958FEF9FEF6C
:100550000895FC01918D228D892F90E0805C9F4F42
:10056000821B91098F73992708958DE892E00E946C
:10057000A90221E0892B09F420E0822F0895FC01D3
:10058000848DDF01A80FB11DA35ABF4F2C91848D1C
:1005900090E001968F739927848FA689B7892C9351
:1005A000A089B1898C91837080648C93938D848DA4
:1005B000981306C00288F389E02D80818F7D8083A7
:1005C0000895EF92FF920F931F93CF93DF93EC0167
:1005D00081E0888F9B8D8C8D981305C0E889F989FF
:1005E000808185FD26C0F62E0B8D10E00F5F1F4F1A
:1005F0000F731127E02E8C8DE8120CC00FB607FC8C
:10060000FACFE889F989808185FFF5CFCE010E9474
:10061000BF02F1CF8B8DFE01E80FF11DE35AFF4FB2
:10062000F0829FB7F8940B8FEA89FB898081806202
:100630000AC09FB7F894EE89FF896083E889F98939
:1006400080818370806480839FBF81E090E0DF9130
:10065000CF911F910F91FF90EF900895CF93DF936B
:10066000EC01888D8823C9F0EA89FB89808185FDAA
:1006700005C0A889B9898C9186FD0FC00FB607FC0B
:10068000F5CF808185FFF2CFA889B9898C9185FF4C
:10069000EDCFCE010E94BF02E7CFDF91CF91089549
:1006A00080E090E0892B21F00E94B502811125C0E5
:1006B00080E090E0892B41F080E090E0892B21F0F0
:1006C0000E94000081111CC080E090E0892B41F065
:1006D00080E090E0892B21F00E940000811113C07E
:1006E00080E090E0892BA1F080E090E0892B81F000
:1006F0000E94000081110AC008950E940000D8CF16
:100700000E940000E1CF0E940000EACF0C9400009C
:100710000895823109F466C0B8F4823069F18330FB
:1007200009F073C0709359026093580281E694E017
:10073000909303028093020280916A00837F846019
:1007400080936A00ED9A5FC0843141F1C8F1853130
:1007500009F05BC070935B0260935A028BE594E0F2
:100760009093050280930402809169008C7F8160E0
:1007700080936900E89A47C07093570260935602CD
:1007800087E694E0909301028093000280916A00D2
:100790008C7F816080936A00EC9A35C070935D0213
:1007A00060935C0285E594E09093070280930602D3
:1007B00080916900837F846080936900E99A23C0F7
:1007C00070935F0260935E028FE494E0909309025D
:1007D00080930802809169008F7C8061809369001A
:1007E000EA9A11C0709361026093600289E494E018
:1007F00090930B0280930A02809169008F7380644A
:1008000080936900EB9A81E0089580E00895DC010F
:10081000ED91FD918081ED91FD919081ED91FD91A2
:100820006C9163708E2309F064609F2309F0686007
:10083000E4E2F4E0E60FF11D659565956D936D9129
:100840007D918D919D91099423C01AC012C016C04C
:1008500010C01EC009C014C013C006C019C009C012
:100860000DC007C00DC014C0625070408040904061
:100870000BC0615070408040904006C06E5F01C068
:100880006F5F7F4F8F4F9F4F9E938E937E936E939C
:10089000089580916002909161020C940704809108
:1008A0005E0290915F020C94070480915C0290912B
:1008B0005D020C94070480915A0290915B020C94A3
:1008C000070480915802909159020C94070480917A
:1008D0005602909157020C9407040C943E160C9407
:1008E0003E160C943E164F925F926F927F928F92BB
:1008F0009F92AF92BF92CF92DF92EF92FF920F93AF
:100900001F93CF93DF93CDB7DEB7A4970FB6F894BC
:10091000DEBF0FBECDBF8091800290918102A09179
:100920008202B09183028093750290937602A09325
:100930007702B09378028091840290918502A09111
:100940008602B09187028093790290937A02A093F5
:100950007B02B0937C0280914903823030F4F8949A
:100960008EE393E00E94070401C0F8948091450350
:1009700090914603A0914703B091480378948093E7
:10098000800290938102A0938202B09383028091AF
:100990003D03823030F4F89482E393E00E94070430
:1009A00001C0F8948091390390913A03A0913B03E0
:1009B000B0913C0378948093840290938502A09335
:1009C0008602B09387020E945B0B60932A037093A8
:1009D0002B0380932C0390932D03809180029091A0
:1009E0008102A0918202B0918302C0907502D090E2
:1009F0007602E0907702F0907802BC01CD016C198C
:100A00007D098E099F090E9454122B013C016093BD
:100A10006A0270936B0280936C0290936D028091D6
:100A2000840290918502A0918602B0918702C090C5
:100A30007902D0907A02E0907B02F0907C02BC01B7
:100A4000CD016C197D098E099F090E9454124B013A
:100A50005C0160936E0270936F02809370029093BA
:100A600071029B01AC01C301B2010E94721322E624
:100A700031EC4AED5DE30E94B31222E530E342E03F
:100A800056E40E94551420E030E040E05FE30E940D
:100A9000B3122DEC3CEC4CEC5DE30E9455146B0161
:100AA0007C01A3019201C501B4010E94711322E6E9
:100AB00031EC4AED5DE30E94B31222E530E342E0FF
:100AC00056E40E94551420E030E040E05FE30E94CD
:100AD000B3122DEC3CEC4CEC5DE30E945514698F95
:100AE0007A8F8B8F9C8F2DEC3CEC4CEC5DE30E945D
:100AF000B31220915B0330915C0340915D035091F0
:100B00005E030E9472134B015C010E9450142B0182
:100B10003C01C501B4010E947015A30192010E941D
:100B2000F1134B015C0160935B0370935C03809352
:100B30005D0390935E032DEC3CEC4CEC5DE3C70150
:100B4000B6010E94B3122B013C01C501B4010E9401
:100B500050149B01AC01C301B2010E94B3129B016E
:100B6000AC016091530370915403809155039091AF
:100B700056030E947213609353037093540380933F
:100B8000550390935603C501B4010E9470159B0153
:100B9000AC01C301B2010E94B3129B01AC01609190
:100BA0005703709158038091590390915A030E9402
:100BB0007213609357037093580380935903909373
:100BC0005A032CE53FE842E45DE3698D7A8D8B8D15
:100BD0009C8D0E94B3122B013C019B01AC01C7010B
:100BE000B6010E94721326E933E44BE85CE30E94ED
:100BF0005514698F7A8F8B8F9C8F609366027093E8
:100C00006702809368029093690280915F039091DC
:100C10006003A0916103B09162038D8F9E8FAF8FAF
:100C2000B8A32CE53FE842E45DE360916303709173
:100C3000640380916503909166030E94B3124B0197
:100C40005C019B01AC016D8D7E8D8F8D98A10E9402
:100C5000721326E933E44BE85CE30E94551469A360
:100C60007AA38BA39CA36093620270936302809328
:100C7000640290936502A3019201C701B6010E942C
:100C8000711326E933E44BE85CE30E9455146B01D1
:100C90007C01A50194016D8D7E8D8F8D98A10E94A0
:100CA000711326E933E44BE85CE30E945514AB0171
:100CB000BC019701860181EA93E00E94B50B6B01AC
:100CC0007C0120E030E0A9010E94631518166CF445
:100CD00020E030E04FE753E4C701B6010E946315FE
:100CE0001816E4F4A70196010DC020E030E04FE7AC
:100CF00053ECC701B6010E944D1287FF0FC0A70138
:100D000096015058C701B6010E94551420E030E00A
:100D10004FE753E40E94B3126B017C01C701B60197
:100D20000E94C7147B01BF2CBB1CBB24BB1C6B2DBA
:100D300086E00E94B309B701F7FE03C07195619583
:100D4000710989E00E946D0A098D1A8D2B8D3C8DE9
:100D500049A15AA16BA17CA18FE693E00E94B50B3B
:100D60006B017C0120E030E0A9010E946315181698
:100D70006CF420E030E04FE753E4C701B6010E9475
:100D800063151816E4F4A70196010DC020E030E0C9
:100D90004FE753ECC701B6010E944D1287FF0FC009
:100DA000A70196015058C701B6010E94551420E0D2
:100DB00030E04FE753E40E94B3126B017C016B2DCE
:100DC00085E00E94B309C701B6010E94C7149B01C8
:100DD00077FF04C022273327261B370BB90184E095
:100DE0000E946D0A40915B0350915C0360915D032A
:100DF00070915E03CE0143960E944D0940915703C6
:100E0000509158036091590370915A03CE010D9689
:100E10000E944D0940915303509154036091550332
:100E200070915603CE0107960E944D091A821982CD
:100E30001C821B821E821D8262E070E0CE01019640
:100E40000E94D308811105C0CE0101960E94280995
:100E50000AC082E090E09E838D8368E472E089811D
:100E60009A810E94BA17BE01695F7F4FCE01019639
:100E70000E943A096BE472E00E949A09BE01635F26
:100E80007F4F0E943A096FE472E00E949A09BE0106
:100E90006D5E7F4F0E943A09DC0114964D915C9182
:100EA00015976D917C918DE892E00E94A70842E031
:100EB00050E063E572E08DE892E00E94A708898126
:100EC0009A810E943E168F8198850E943E168D85DC
:100ED0009E850E943E168B899C890E943E16A49690
:100EE0000FB6F894DEBF0FBECDBFDF91CF911F913B
:100EF0000F91FF90EF90DF90CF90BF90AF909F90B9
:100F00008F907F906F905F904F9008951F920F92F7
:100F10000FB60F9211240BB60F922F933F934F935E
:100F20005F936F937F938F939F93AF93BF93EF9351
:100F3000FF938DE892E00E94BF02FF91EF91BF9175
:100F4000AF919F918F917F916F915F914F913F9161
:100F50002F910F900BBE0F900FBE0F901F90189502
:100F60001F920F920FB60F9211240BB60F922F9370
:100F70008F939F93EF93FF93E0919D02F0919E02D8
:100F80008081E091A302F091A40282FD12C09081C1
:100F90008091A6028F5F8F732091A702821751F074
:100FA000E091A602F0E0E357FD4F958F8093A602F3
:100FB00001C08081FF91EF919F918F912F910F90B0
:100FC0000BBE0F900FBE0F901F9018951F920F929F
:100FD0000FB60F9211240BB60F922F933F934F939E
:100FE0005F936F937F938F939F93AF93BF93EF9391
:100FF000FF93E0918B02F0918C021995FF91EF9194
:10100000BF91AF919F918F917F916F915F914F9120
:101010003F912F910F900BBE0F900FBE0F901F901E
:101020001895089508950F931F93CF93DF93EC01C4
:10103000062F142F62E0802F0E94310A62E0812F78
:101040000E94310A802F90E0FC01E455FC4FE491AE
:10105000F0E0EE0FFF1FE25AFC4FA591B491B98367
:10106000A883FC01EE50FC4F24912C83812F90E04B
:10107000FC01E455FC4FE491F0E0EE0FFF1FE25A53
:10108000FC4F459154915B834A83FC01EE50FC4F29
:1010900094919D831F82188619861A86EBE3FFE1DF
:1010A0003197F1F7EC91E22331E009F430E0DA0115
:1010B000EC91E92309F032603E83BE01802F0E944B
:1010C00089038B87BE01812F0E9489039B85890F2D
:1010D0008B87DF91CF911F910F91089508950C9404
:1010E0003E160895CF93DF93EC019A8191110AC0C7
:1010F000FB0183819481A581B6818B839C83AD8321
:10110000BE8321C0DA01FB01913059F4238134817F
:10111000458156816B817C818D819E810E947213F5
:101120000EC0923081F413962D913D914D915C91BA
:10113000169763817481858196810E9471136B83F8
:101140007C838D839E83DF91CF9108950895CF9204
:10115000DF92EF92FF920F931F93CF93DF936C0177
:101160007A018B01C0E0D0E0CE15DF0581F0D80117
:101170006D918D01D601ED91FC910190F081E02DF2
:10118000C6011995892B11F02196EECF7E01C7017A
:10119000DF91CF911F910F91FF90EF90DF90CF9053
:1011A00008950E94AC170F931F93CF93DF93EC0128
:1011B00088819981009729F02A813B81261737077A
:1011C00088F48B016F5F7F4F0E94C716009761F014
:1011D000998388831B830A832C813D81232B11F4FF
:1011E000FC01108281E001C080E0DF91CF911F916E
:1011F0000F910895EF92FF920F931F93CF93DF9378
:101200006115710511F480E01CC041155105C1F054
:101210007B01EC018C819D818A01080F191FB801A7
:10122000CE010E94D308882371F3288139818C81F3
:101230009D81B701820F931F0E94BA171D830C83F3
:1012400081E0DF91CF911F910F91FF90EF90089572
:10125000CF93DF93EC0188819981009711F00E9470
:101260003E16198218821D821C821B821A82DF910F
:10127000CF910895CF93DF93EC01FB014481558119
:10128000608171810E94FA08811103C0CE010E9421
:101290002809CE01DF91CF910895CF92DF92EF928E
:1012A000FF920F931F93CF93DF93CDB7DEB7A19734
:1012B0000FB6F894DEBF0FBECDBF7C01CB01BA01E3
:1012C000F7011182108213821282158214828E011C
:1012D0000F5F1F4F22E044E00E94DE0F6C01009779
:1012E00071F0FC0101900020E9F731978F01081B94
:1012F000190BB801C7010E94D308811104C0C701AE
:101300000E94280908C0F70115830483B601808173
:1013100091810E94BA17A1960FB6F894DEBF0FBE56
:10132000CDBFDF91CF911F910F91FF90EF90DF9094
:10133000CF900895CF93DF93EC016115710561F0B3
:10134000FB0101900020E9F73197AF01461B570BD5
:101350000E94FA08811103C0CE010E942809CE0123
:10136000DF91CF910895362F90E0FC01E85CFB4FB0
:101370004491FC01EE50FC4F2491FC01E455FC4FDC
:101380009491992309F46CC0442309F455C050E0AA
:10139000FA013197E231F10508F04EC08827EE5886
:1013A000FF4F8F4F0C949E15809180008F7707C060
:1013B000809180008F7D03C080918000877F809323
:1013C00080003AC084B58F7702C084B58F7D84BD1C
:1013D00033C08091B0008F7703C08091B0008F7DC3
:1013E0008093B00029C0809190008F7707C08091D2
:1013F00090008F7D03C080919000877F8093900044
:101400001BC08091A0008F7707C08091A0008F7DC6
:1014100003C08091A000877F8093A0000DC08091C1
:1014200020018F7707C0809120018F7D03C08091BC
:101430002001877F80932001E92FF0E0EE0FFF1F4E
:10144000EE56FC4FA591B4919FB7F894311104C0AA
:101450008C912095282302C0EC912E2B2C939FBFBA
:101460000895CF93DF9390E0FC01EE50FC4F249160
:10147000FC01E455FC4F8491882361F190E0880FD2
:10148000991FFC01E858FC4FC591D491FC01EE5620
:10149000FC4FA591B491611109C09FB7F894888160
:1014A000209582238883EC912E230BC0623061F457
:1014B0009FB7F8948881322F309583238883EC91ED
:1014C0002E2B2C939FBF06C08FB7F894E8812E2B4C
:1014D00028838FBFDF91CF9108951F93CF93DF9320
:1014E000182FEB0161E00E94310A209711F460E0AF
:1014F00004C0CF3FD10539F461E0812FDF91CF9156
:101500001F910C94B309E12FF0E0E85CFB4FE491EC
:101510008E2F90E0FC013197E231F10508F09DC07B
:101520008827EC57FF4F8F4F0C949E1584B5806829
:1015300084BDC7BD97C084B5806284BDC8BD92C05C
:1015400080918000806880938000D0938900C09350
:10155000880088C080918000806280938000D09352
:101560008B00C0938A007EC0809180008860809349
:101570008000D0938D00C0938C0074C08091B00027
:1015800080688093B000C093B3006CC08091B000BD
:1015900080628093B000C093B40064C080919000DA
:1015A000806880939000D0939900C09398005AC0AF
:1015B00080919000806280939000D0939B00C093B4
:1015C0009A0050C080919000886080939000D093E2
:1015D0009D00C0939C0046C08091A00080688093CD
:1015E000A0008091A0008F7B8093A000D093A900E1
:1015F000C093A80037C08091A00080628093A000B3
:10160000D093AB00C093AA002DC08091A000886049
:101610008093A000D093AD00C093AC0023C0809114
:101620002001806880932001D0932901C093280174
:1016300019C080912001806280932001D0932B01FA
:10164000C0932A010FC080912001886080932001FF
:10165000D0932D01C0932C0105C0C038D1050CF0EA
:101660004BCF45CFDF91CF911F9108953FB7F894AD
:101670008091E2039091E303A091E403B091E5032C
:1016800026B5A89B05C02F3F19F00196A11DB11DDD
:101690003FBFBA2FA92F982F8827820F911DA11D18
:1016A000B11DBC01CD0142E0660F771F881F991F55
:1016B0004A95D1F708952FB7F8946091DE037091A1
:1016C000DF038091E0039091E1032FBF0895CF9352
:1016D000DF93EC0182E292E0998388838AE192E0D1
:1016E0009F8B8E8B188E198E1A8E1B8E1C8E9E8F42
:1016F0008D8F1F8E18A219A21AA21BA29DA38CA3C4
:101700001FA218A619A61AA69CA78BA71EA61FA6DD
:1017100018AA19AA80E090E0A0E2B2E48A839B8331
:10172000AC83BD8380E090E0AFEAB3E48E839F8317
:10173000A887B98780E090E0A0E0B0E48A879B8723
:10174000AC87BD8781E08EA382E08DA70E945B0BF2
:101750006A8B7B8B8C8B9D8B0E945B0B6E877F874C
:10176000888B998BDF91CF9108954F925F926F9202
:101770007F928F929F92AF92BF92EF92FF920F93C0
:101780001F93CF93DF93CDB7DEB72E970FB6F894A4
:10179000DEBF0FBECDBF7C014A015B0128013901CC
:1017A000FC0182899389A489B58986879787A08B54
:1017B000B18B0E945B0BF701628B738B848B958BD3
:1017C000818D928DA38DB48D80A391A3A2A3B3A389
:1017D000A3019201C501B4010E947113F701618F49
:1017E000728F838F948F0AE112E0198708871A8617
:1017F0001B861C861D861E861A830983208D2B83DB
:101800006C837D838E839F83AE01485F5F4FBE01F3
:101810006F5F7F4FC70184960E94720819870887FF
:10182000F701878D8A8780A191A1A2A1B3A18B879F
:101830009C87AD87BE871A830983808D8B83818DBA
:10184000928DA38DB48D8C839D83AE83BF83AE01B7
:10185000485F5F4FBE016F5F7F4FC7018B960E944D
:101860007208F70127A130A541A552A566817781AD
:10187000808591850E94B3122DEC3CEC4CEC5DE32D
:101880000E94B3124B015C01F701218D328D438D13
:10189000548D62817381848195810E94B3129B0172
:1018A000AC01C501B4010E9472134B015C01F70148
:1018B00026A537A540A951A962857385848595859C
:1018C0000E94B3122DEC3CEC4CEC5DE30E945514ED
:1018D0009B01AC01C501B4010E9472132E960FB694
:1018E000F894DEBF0FBECDBFDF91CF911F910F9156
:1018F000FF90EF90BF90AF909F908F907F906F90F0
:101900005F904F9008951F920F920FB60F9211247F
:101910002F933F938F939F93AF93BF938091DE0359
:101920009091DF03A091E003B091E1033091DD03DA
:1019300023E0230F2D3720F40196A11DB11D05C012
:1019400026E8230F0296A11DB11D2093DD0380938D
:10195000DE039093DF03A093E003B093E103809153
:10196000E2039091E303A091E403B091E5030196B3
:10197000A11DB11D8093E2039093E303A093E403C0
:10198000B093E503BF91AF919F918F913F912F91BC
:101990000F900FBE0F901F9018951F920F920FB6C9
:1019A0000F9211240BB60F922F933F934F935F9397
:1019B0006F937F938F939F93AF93BF93EF93FF9317
:1019C000E0910E02F0910F021995FF91EF91BF91F6
:1019D000AF919F918F917F916F915F914F913F91C7
:1019E0002F910F900BBE0F900FBE0F901F90189568
:1019F0001F920F920FB60F9211240BB60F922F93D6
:101A00003F934F935F936F937F938F939F93AF9386
:101A1000BF93EF93FF93E0910C02F0910D021995A3
:101A2000FF91EF91BF91AF919F918F917F916F91B6
:101A30005F914F913F912F910F900BBE0F900FBE72
:101A40000F901F9018951F920F920FB60F921124AE
:101A50000BB60F922F933F934F935F936F937F93A8
:101A60008F939F93AF93BF93EF93FF93E091020205
:101A7000F09103021995FF91EF91BF91AF919F9162
:101A80008F917F916F915F914F913F912F910F9027
:101A90000BBE0F900FBE0F901F9018951F920F92C4
:101AA0000FB60F9211240BB60F922F933F934F93C3
:101AB0005F936F937F938F939F93AF93BF93EF93B6
:101AC000FF93E0910002F09101021995FF91EF91CF
:101AD000BF91AF919F918F917F916F915F914F9146
:101AE0003F912F910F900BBE0F900FBE0F901F9044
:101AF00018951F920F920FB60F9211240BB60F92EA
:101B00002F933F934F935F936F937F938F939F9305
:101B1000AF93BF93EF93FF93E0910A02F0910B0212
:101B20001995FF91EF91BF91AF919F918F917F9107
:101B30006F915F914F913F912F910F900BBE0F903E
:101B40000FBE0F901F9018951F920F920FB60F9215
:101B500011240BB60F922F933F934F935F936F9384
:101B60007F938F939F93AF93BF93EF93FF93E091F6
:101B70000802F09109021995FF91EF91BF91AF9181
:101B80009F918F917F916F915F914F913F912F9195
:101B90000F900BBE0F900FBE0F901F9018951F92C5
:101BA0000F920FB60F9211240BB60F922F933F9303
:101BB0004F935F936F937F938F939F93AF93BF9355
:101BC000EF93FF93E0910602F09107021995FF91C0
:101BD000EF91BF91AF919F918F917F916F915F91A5
:101BE0004F913F912F910F900BBE0F900FBE0F9012
:101BF0001F9018951F920F920FB60F9211240BB6DB
:101C00000F922F933F934F935F936F937F938F9395
:101C10009F93AF93BF93EF93FF93E0910402F091F2
:101C200005021995FF91EF91BF91AF919F918F910F
:101C30007F916F915F914F913F912F910F900BBECC
:101C40000F900FBE0F901F901895789484B5826006
:101C500084BD84B5816084BD85B5826085BD85B550
:101C6000816085BD80916E00816080936E001092CE
:101C70008100809181008260809381008091810049
:101C800081608093810080918000816080938000DA
:101C90008091B10084608093B1008091B000816038
:101CA0008093B00080919100826080939100809138
:101CB0009100816080939100809190008160809379
:101CC00090008091A10082608093A1008091A1008A
:101CD00081608093A1008091A00081608093A0002A
:101CE0008091210182608093210180912101816096
:101CF0008093210180912001816080932001809157
:101D00007A00846080937A0080917A008260809368
:101D10007A0080917A00816080937A0080917A00C5
:101D2000806880937A001092C100F8941092450365
:101D30001092460310924703109248037894F89447
:101D40001092390310923A0310923B0310923C0315
:101D50007894E0919D02F0919E0282E08083E09170
:101D60009902F0919A021082E0919B02F0919C02FC
:101D700080E180831092A502E091A102F091A2027D
:101D800086E08083E0919F02F091A00280818061D3
:101D90008083E0919F02F091A0028081886080831F
:101DA000E0919F02F091A002808180688083E091A1
:101DB0009F02F091A00280818F7D80830E94360B6C
:101DC0004B015C0190EDC92E97E0D92EE12CF12C4E
:101DD0000E94360BDC01CB0188199909AA09BB09BD
:101DE000883E9340A105B10598F321E0C21AD108BD
:101DF000E108F10888EE880E83E0981EA11CB11C52
:101E0000C114D104E104F10419F70E945B0B609343
:101E10002A0370932B0380932C0390932D0361E08E
:101E200085E00E94310A61E086E00E94310A10924A
:101E3000200180E18093210183E080938A0284ED78
:101E400090E3909389028093880290932701809376
:101E5000260180912101887F8093210180912101B9
:101E600083608093210183E794E090938C028093B8
:101E70008B0281E08093730078949091210180918E
:101E80008A02892B809321018FE8C82E82ECD82EFC
:101E900085EFE82E8CE3F82EC0925F03D0926003AA
:101EA000E0926103F09262030E945003F5CF8FE647
:101EB00093E00E946E0881EA93E00C946E08EDE8CE
:101EC000F2E01382128288EE93E0A0E0B0E0848317
:101ED0009583A683B7838AE292E09183808385EC21
:101EE00090E09587848784EC90E09787868780ECE4
:101EF00090E0918B808B81EC90E0938B828B82ECD5
:101F000090E0958B848B86EC90E0978B868B118E7E
:101F1000128E138E148E84E492E09093D4038093F7
:101F2000D30381EA93E00E94670B8FE693E00E945F
:101F3000670BEFE5F3E010821182128213821482A4
:101F4000158216821782E3E5F3E010821182128275
:101F500013821482158216821782108611861286C9
:101F60001386E0E5F3E08CE392E09183808328E33D
:101F70002283EDE4F3E0918380832AE32283EAE481
:101F8000F3E09183808389E3828342E163E18EE31E
:101F900093E00E94130843E062E082E393E00E9432
:101FA00013080E945B0B0E945B0B60932A037093E3
:101FB0002B0380932C0390932D030895EF920F939E
:101FC0001F93CF93DF93E80147FD02C034E001C0C7
:101FD00034E1042E000C550B57FF03C05195419579
:101FE0005109E32E022F242FAE010E94FE0FCE01D5
:101FF000DF91CF911F910F91EF9008958F929F9253
:10200000AF92BF92CF92DF92EF92FF920F931F9306
:10201000CF93DF93CDB7DEB729970FB6F894DEBF25
:102020000FBECDBF6A01122FB02E2BE3201720F078
:10203000FF24F394F00E02C02CE3F22E0F2D27E0C4
:10204000AE014F5F5F4F0E947511BC014981842F23
:102050008970813031F0E1FC06C0E0FE06C090E2FC
:1020600005C09DE203C09BE201C090E05E2D50716F
:1020700043FF3CC0911102C083E001C084E081179E
:1020800018F4212F281B01C020E051110BC0F601CC
:10209000822F30E2882319F031938150FBCFC20E9A
:1020A000D11C20E0992329F0D6019C93F6013196AA
:1020B0006F01C6010396E2FE0AC03EE4D6013C93DE
:1020C00041E411964C93119712963C9306C03EE65C
:1020D000F601308341E641833283FC01322F40E236
:1020E000332309F442C041933150FACF42FF44C038
:1020F000911102C083E001C084E0811718F4212F00
:10210000281B01C020E051110BC0F601822F30E2E4
:10211000882319F031938150FBCFC20ED11C20E0EF
:10212000992329F0D6019C93F60131966F01C601DF
:102130000396E2FE0BC039E4D6013C933EE41196CF
:102140003C93119736E412963C9307C039E6F601AA
:1021500030833EE6318336E63283FC01322F40E2A3
:10216000332319F041933150FBCFFC01E20FF11DF5
:1021700010828EEF9FEFA6C021E030E0911102C0E7
:1021800020E030E0161617061CF4FB01319602C061
:10219000E1E0F0E02E0F3F1FBB2021F0EB2DF0E03F
:1021A000319602C0E0E0F0E02E0F3F1FE12FF0E09B
:1021B0002E173F071CF4121B212F01C020E08E2D8B
:1021C000887159F4F601822F30E2882319F0319397
:1021D0008150FBCFC20ED11C20E0992329F0D601FB
:1021E0009C93F60131966F0151110BC0F601822FBD
:1021F00090E3882319F091938150FBCFC20ED11C3C
:1022000020E00F2D060F9A81342F307144FF03C058
:10221000913309F40150101624F4093018F008E045
:1022200001C001E0AB0177FF02C040E050E0FB01DC
:10223000E41BF50BA1E0B0E0AC0FBD1FEA0FFB1FE4
:102240008EE2A82E4B01801A91080B2D10E01195FB
:10225000019511094F3FBFEF5B0721F4D601AC9206
:1022600011966D01641775072CF08416950614F409
:10227000818101C080E3415051093196D601119608
:102280007D014017510724F0D6018C936701E2CFFE
:102290006417750739F4963320F4953319F4311126
:1022A00001C081E3F6018083F701822F90E2882349
:1022B00019F091938150FBCFF701E20FF11D1082CD
:1022C00080E090E029960FB6F894DEBF0FBECDBF38
:1022D000DF91CF911F910F91FF90EF90DF90CF9002
:1022E000BF90AF909F908F900895283008F027E01E
:1022F0003327DA01990F311D87FD91600096610542
:10230000710539F432602E5F3D9330E32A95E1F791
:1023100008959F3F30F080387105610509F03C5FFA
:102320003C5F3D93913008F08068911DDF93CF931F
:102330001F930F93FF92EF92192F987F9695E92F95
:1023400096959695E90FFF27E254FD4F992733277D
:10235000EE24FF24A701E70105900894079428F4D0
:10236000360FE71EF81E491F511D660F771F881F85
:10237000991F0694A1F70590079428F4E70EF81E1C
:10238000491F561FC11D770F881F991F661F06948E
:10239000A1F70590079428F4F80E491F561FC71F90
:1023A000D11D880F991F661F771F0694A1F705900E
:1023B000079420F4490F561FC71FD81F990F661F97
:1023C000771F881F0694A9F784911095177041F024
:1023D000D695C79557954795F794E7941A95C1F701
:1023E000E4E6F2E068941590159135916591959128
:1023F00005907FE27395E118F10A430B560BC90B68
:10240000D009C0F7E10CF11E431F561FC91FD01D94
:102410007EF4703311F48A95E6CFE894015030F0E1
:10242000080F0AF40027021708F4202F2395022F23
:102430007A3328F079E37D932A95E9F710C07D93EC
:102440002A9589F606949795679537951795179469
:10245000E118F10A430B560BC90BD00998F02395EC
:102460007E9173957A3308F070E37C932013B8F76C
:102470007E9170617D9330F0839571E37D9370E37D
:102480002A95E1F71124EF90FF900F911F91CF91C2
:10249000DF91992787FD909508950E948F1208F487
:1024A00081E00895E89409C097FB3EF490958095EB
:1024B000709561957F4F8F4F9F4F9923A9F0F92F0A
:1024C00096E9BB279395F695879577956795B79588
:1024D000F111F8CFFAF4BB0F11F460FF1BC06F5F6E
:1024E0007F4F8F4F9F4F16C0882311F096E911C080
:1024F000772321F09EE8872F762F05C0662371F0A1
:1025000096E8862F70E060E02AF09A95660F771FB4
:10251000881FDAF7880F9695879597F90895990F90
:102520000008550FAA0BE0E8FEEF16161706E8079D
:10253000F907C0F012161306E407F50798F0621BBE
:10254000730B840B950B39F40A2661F0232B242B93
:10255000252B21F408950A2609F4A140A6958FEFB2
:10256000811D811D08950E94C6120C9437130E948C
:10257000291338F00E94301320F0952311F00C94A9
:1025800020130C94261311240C946B130E944813EF
:1025900070F3959FC1F3950F50E0551F629FF001B6
:1025A000729FBB27F00DB11D639FAA27F00DB11DCF
:1025B000AA1F649F6627B00DA11D661F829F222758
:1025C000B00DA11D621F739FB00DA11D621F839FDF
:1025D000A00D611D221F749F3327A00D611D231FB5
:1025E000849F600D211D822F762F6A2F11249F5703
:1025F00050409AF0F1F088234AF0EE0FFF1FBB1F06
:10260000661F771F881F91505040A9F79E3F5105C4
:1026100080F00C9420130C946B135F3FE4F3983E0E
:10262000D4F3869577956795B795F795E7959F5F6E
:10263000C1F7FE2B880F911D9695879597F9089500
:1026400097F99F6780E870E060E008959FEF80EC65
:10265000089500240A941616170618060906089508
:1026600000240A9412161306140605060895092E6E
:102670000394000C11F4882352F0BB0F40F4BF2BDD
:1026800011F460FF04C06F5F7F4F8F4F9F4F08951D
:1026900057FD9058440F551F59F05F3F71F0479513
:1026A000880F97FB991F61F09F3F79F087950895F8
:1026B000121613061406551FF2CF4695F1DF08C017
:1026C000161617061806991FF1CF86957105610534
:1026D00008940895E894BB2766277727CB0197F9DC
:1026E00008955058BB27AA270E9489130C943713CA
:1026F0000E94291338F00E94301320F039F49F3FD4
:1027000019F426F40C9426130EF4E095E7FB0C94D0
:102710002013E92F0E94481358F3BA176207730772
:102720008407950720F079F4A6F50C946A130EF44B
:10273000E0950B2EBA2FA02D0B01B90190010C01D1
:10274000CA01A0011124FF27591B99F0593F50F4E9
:10275000503E68F11A16F040A22F232F342F442741
:10276000585FF3CF469537952795A795F040539539
:10277000C9F77EF41F16BA0B620B730B840BBAF009
:102780009150A1F0FF0FBB1F661F771F881FC2F774
:102790000EC0BA0F621F731F841F48F48795779588
:1027A0006795B795F7959E3F08F0B0CF9395880F42
:1027B00008F09927EE0F9795879508950E942913A1
:1027C00060F080E891E009F49EEF0E94301328F059
:1027D00040E851E071F45EEF0CC00C9426130C94A9
:1027E0006A13E92FE0780E94481340F3092E052A66
:1027F000B1F3261737074807590738F00E2E07F8A8
:10280000E02569F0E025E0640AC0EF6307F8009472
:1028100007FADB01B9019D01DC01CA01AD01EF93AB
:102820000E946C140E9437130E9421145F9155235B
:1028300039F02BED3FE049E450FD49EC0C94721364
:102840000895DF93DD27B92FBF7740E85FE31616C1
:10285000170648075B0718F4D92F0E9468159F9345
:102860008F937F936F930E947815ECE2F1E00E94C2
:10287000FD140E9437132F913F914F915F910E9459
:10288000C612DD2351F09058A2EA2AED3FE049EC50
:102890005FE3D0785D270E948913DF910C94371392
:1028A0000E942615E3950C944F150E9469140C9410
:1028B00037130E94301358F00E94291340F029F476
:1028C0005F3F29F00C94201351110C946B130C945E
:1028D00026130E94481368F39923B1F3552391F30B
:1028E000951B550BBB27AA2762177307840738F07F
:1028F0009F5F5F4F220F331F441FAA1FA9F335D0DC
:102900000E2E3AF0E0E832D091505040E695001C8F
:10291000CAF72BD0FE2F29D0660F771F881FBB1F49
:10292000261737074807AB07B0E809F0BB0B802D27
:10293000BF01FF2793585F4F3AF09E3F510578F053
:102940000C9420130C946B135F3FE4F3983ED4F384
:10295000869577956795B795F7959F5FC9F7880F27
:10296000911D9695879597F90895E1E0660F771F79
:10297000881FBB1F621773078407BA0720F0621B0A
:10298000730B840BBA0BEE1F88F7E09508950E9435
:10299000CE146894B1110C946B1308950E945013D7
:1029A00088F09F5798F0B92F9927B751B0F0E1F010
:1029B000660F771F881F991F1AF0BA95C9F714C0C0
:1029C000B13091F00E946A13B1E008950C946A133B
:1029D000672F782F8827B85F39F0B93FCCF38695F9
:1029E00077956795B395D9F73EF490958095709556
:1029F00061957F4F8F4F9F4F0895DF93CF931F9324
:102A00000F93FF92EF92DF927B018C01689406C0D6
:102A1000DA2EEF010E94C612FE01E894A5912591DD
:102A2000359145915591A6F3EF010E948913FE015E
:102A30009701A801DA9469F7DF90EF90FF900F916A
:102A40001F91CF91DF9108950C9426130E9450138B
:102A5000D8F3E894E0E0BB279F57F0F02AED3FE081
:102A600049EC06C0EE0FBB0F661F771F881F28F0CA
:102A7000B23A62077307840728F0B25A620B730BED
:102A8000840BE3959A9572F7803830F49A95BB0FD2
:102A9000661F771F881FD2F790480C947E15EF931E
:102AA000E0FF07C0A2EA2AED3FE049EC5FEB0E949D
:102AB00089130E9437130F90039401FC9058E9E5A5
:102AC000F1E00C948A150E948F1208F48FEF08959C
:102AD0009B01AC0160E070E080E89FE30C9455142A
:102AE0009F930E9426150F9007FCEE5F0C944F15E4
:102AF0009B01AC010C94B3129F3F31F0915020F434
:102B0000879577956795B795880F911D96958795C9
:102B100097F908959F938F937F936F93FF93EF930C
:102B20009B01AC010E94B312EF91FF910E94FD1432
:102B30002F913F914F915F910C94B312EE0FFF1FB5
:102B4000881F8BBF0790F691E02D19940F931F9368
:102B5000CF93DF938230910510F482E090E0E09112
:102B6000E803F091E90320E030E0A0E0B0E0309726
:102B700019F1408151810281138148175907C8F02A
:102B80008417950769F4109731F012960C931297F9
:102B900013961C9327C00093E8031093E90322C007
:102BA0002115310519F04217530718F49A01BD0198
:102BB000EF01DF01F801DBCF21153105F9F0281B0A
:102BC000390B2430310580F48A819B8161157105B0
:102BD00021F0FB019383828304C09093E9038093E7
:102BE000E803FE01329644C0FE01E20FF31F819319
:102BF000919322503109398328833AC02091E6030A
:102C00003091E703232B41F42091120230911302FB
:102C10003093E7032093E6032091100230911102D4
:102C20002115310541F42DB73EB740911402509162
:102C30001502241B350BE091E603F091E703E21740
:102C4000F307A0F42E1B3F0B2817390778F0AC01CF
:102C50004E5F5F4F2417350748F04E0F5F1F5093AC
:102C6000E7034093E6038193919302C0E0E0F0E034
:102C7000CF01DF91CF911F910F910895CF93DF93F3
:102C8000009709F481C0FC01329713821282A0914F
:102C9000E803B091E903109781F420813181820F1C
:102CA000931F2091E6033091E7032817390751F568
:102CB000F093E703E093E60367C0ED0120E030E026
:102CC000CE17DF0740F44A815B819E014115510513
:102CD000F1F0EA01F5CFD383C28340815181840FA3
:102CE000951FC817D90759F488819981840F951FBA
:102CF0000296918380838A819B81938382832115AD
:102D0000310529F4F093E903E093E8033DC0E901BC
:102D1000FB83EA8349915991C40FD51FEC17FD0736
:102D200061F480819181840F951F0296E901998356
:102D30008883828193819B838A83E0E0F0E012960E
:102D40008D919C911397009719F0FD01DC01F7CF4D
:102D50008D919C9111979D012E5F3F4F820F931F84
:102D60002091E6033091E7032817390769F430977B
:102D700029F41092E9031092E80302C01382128230
:102D8000B093E703A093E603DF91CF9108956F928C
:102D90007F928F929F92AF92BF92CF92DF92EF92EB
:102DA000FF920F931F93CF93DF93009789F4CB018A
:102DB000DF91CF911F910F91FF90EF90DF90CF9017
:102DC000BF90AF909F908F907F906F900C94A615BE
:102DD000FC01E60FF71F9C0122503109E217F307AF
:102DE00008F4A9C0EC01D9010D911C9111970617A7
:102DF0001707B0F00530110508F49BC0C80104970F
:102E00008617970708F495C002501109061B170B87
:102E1000019311936D937C93CF010E943E1689C05C
:102E20005B01A01AB10A4C01800E911EA091E8032B
:102E3000B091E903612C712CE12CF12C109709F46D
:102E400046C08D919C911197A815B905B1F56C01FB
:102E500042E0C40ED11CCA14DB0478F14C018A187C
:102E60009B08640142E0C40ED11C1296BC901297DC
:102E70001396AC91B5E0CB16D10440F0B282A38397
:102E800091828082D9016D937C9309C00E5F1F4FA0
:102E9000800F911FF90191838083EB2DFA2FE114AC
:102EA000F10431F0D7011396FC93EE93129741C0D1
:102EB000F093E903E093E8033CC06816790608F450
:102EC0003C017D0112960D90BC91A02DB7CF809151
:102ED000E6039091E70388169906E1F466167706F3
:102EE000C8F48091100290911102009741F48DB7BF
:102EF0009EB74091140250911502841B950BE81760
:102F0000F907C8F4F093E703E093E603F90171834E
:102F100060830FC0CB010E94A6157C01009759F079
:102F2000A801BE010E94B117CE010E943E16C70142
:102F300004C0CE0102C080E090E0DF91CF911F91EC
:102F40000F91FF90EF90DF90CF90BF90AF909F9048
:102F50008F907F906F90089581E090E0F8940C94AA
:102F6000C117FB01DC0102C001900D92415050409D
:102F7000D8F70895FB01DC0101900D920020E1F7E4
:102F8000089512E0C0E4D2E000E006C0802FFE0108
:102F90000E949E152196011DC134D10780E00807CB
:062FA000A9F7F894FFCF31
:102FA600A608A608A608A608A608A608A608A608AB
:102FB6000000EA03800000000000710871040000B0
:102FC60000006E086F0800000000E102A708780202
:102FD6002E03A90287029B020000000012086D045E
:102FE6000000000011086F04583A0020593A0020EA
:062FF600543A000D0A0030
:00000001FF
