:100000000C949E010C948D070C9462070C94370796
:100010000C940C070C94E1060C94B6060C948B0619
:100020000C9460060C94CF010C94CF010C94CF017A
:100030000C94CF010C94CF010C94CF010C94CF0100
:100040000C94CF010C94CF010C94CF010C94CF01F0
:100050000C94CF010C94CF010C94CF010C94160694
:100060000C94CF010C94E2070C94B8070C94CF01C8
:100070000C94CF010C94CF010C94CF010C94CF01C0
:100080000C94CF010C94CF010C94CF010C94CF01B0
:100090000C94CF010C94CF010C94CF010C94CF01A0
:1000A0000C94CF010C94CF010C94CF010C94CF0190
:1000B0000C94CF010C94CF010C94CF010C94CF0180
:1000C0000C94CF010C94CF010C9418080C94CF0120
:1000D0000C94CF010C94CF010C94CF010C94CF0160
:1000E0000C94CF0109090C09FB08FF080309430917
:1000F000100914091A091E09220928092C093009B6
:10010000430936093A093E09BD09C209C709D1099F
:10011000DB09540AE509ED09F509FF09090A130A83
:10012000220A2C0A540A360A400A4A0A0C9423026C
:100130000C94F5030C94DD030C94E9030C940C0966
:100140000C94ED090C94D7030C9410090C9414062C
:100150000C9443090C94EF030C94D1010C94E50921
:100160000C94A0080C94D2010C94540A0C94A3088B
:100170000C9400020C9414090C94890C0C94FF0844
:100180000C94F5090C9410060C9444080C94D103BB
:100190000C94A1080C94BD090C9431020C942C0A07
:1001A0000C944A0A0C9436090C9469020C94130AB4
:1001B0000C94FF090C94FB080C94220A0C943A0945
:1001C0000C942C090C94360A0C94D1090C94430815
:1001D0000C9422090C9409090C94C7090C941A096F
:1001E0000C9430090C9403090C940F020C94B60281
:1001F0000C943E090C941E090C94C2090C94910CA9
:100200000C94DB090C94090A0C94400A0C942809FC
:100210000C9412060C94E303000020002300260037
:1002200029002C002F00320000010000030106010C
:10023000090100002100240027002A002D003000C1
:10024000330001010000040107010A01000022003F
:10025000250028002B002E00310034000201000090
:10026000050108010B010505050507050808080833
:10027000020202020A0A080804040404010101013E
:100280000101010103030303030303030407070739
:100290000C0C0C0C0C0C0C0C0202020206060606DE
:1002A000060606060B0B0B0B0B0B0B0B01021020AB
:1002B000200808102040102040800201020108049C
:1002C0000201010204081020408080402010080430
:1002D0000201800402018040201008040201080489
:1002E00002010102040810204080010204081020CD
:1002F000408000000A0B02090C0D0E0807030401E0
:1003000000000000000000000000000000000000ED
:1003100000000000000000000000000000001211BA
:1003200010000000000000000000000000000000BD
:100330000000000000000000910C890C11241FBE79
:10034000CFEFD1E2DEBFCDBF00E00CBF12E0A0E0F6
:10035000B2E0E4ECF3E200E00BBF02C007900D92C4
:10036000AC34B107D9F723E0ACE4B2E001C01D9290
:10037000A43DB207E1F711E0CDE9D1E000E006C00D
:1003800021970109802FFE010E94A210CC39D107CC
:1003900080E00807A9F70E946F0B0C94D0110C9411
:1003A00000000895CF92DF92EF92FF920F931F9378
:1003B000CF93DF936C017A018B01C0E0D0E0CE15C2
:1003C000DF0581F0D8016D918D01D601ED91FC9191
:1003D0000190F081E02DC6011995892B11F021962D
:1003E000EECF7E01C701DF91CF911F910F91FF905A
:1003F000EF90DF90CF900895089580E090E0089509
:10040000FC01538D448D252F30E0842F90E0821B1A
:10041000930B541710F0CF96089501970895FC019F
:10042000918D828D981761F0828DDF01A80FB11D2B
:100430005D968C91928D9F5F9F73928F90E008954F
:100440008FEF9FEF0895FC01918D828D981731F009
:10045000828DE80FF11D858D90E008958FEF9FEF5D
:100460000895FC01918D228D892F90E0805C9F4F33
:10047000821B91098F73992708958CE892E00E945E
:10048000310221E0892B09F420E0822F0895FC013C
:10049000848DDF01A80FB11DA35ABF4F2C91848D0D
:1004A00090E001968F739927848FA689B7892C9342
:1004B000A089B1898C91837080648C93938D848D95
:1004C000981306C00288F389E02D80818F7D808398
:1004D0000895EF92FF920F931F93CF93DF93EC0158
:1004E00081E0888F9B8D8C8D981305C0E889F989F0
:1004F000808185FD26C0F62E0B8D10E00F5F1F4F0B
:100500000F731127E02E8C8DE8120CC00FB607FC7C
:10051000FACFE889F989808185FFF5CFCE010E9465
:100520004702F1CF8B8DFE01E80FF11DE35AFF4F1B
:10053000F0829FB7F8940B8FEA89FB8980818062F3
:100540000AC09FB7F894EE89FF896083E889F9892A
:1005500080818370806480839FBF81E090E0DF9121
:10056000CF911F910F91FF90EF900895CF93DF935C
:10057000EC01888D8823C9F0EA89FB89808185FD9B
:1005800005C0A889B9898C9186FD0FC00FB607FCFC
:10059000F5CF808185FFF2CFA889B9898C9185FF3D
:1005A000EDCFCE010E944702E7CFDF91CF910895B2
:1005B00080E090E0892B21F00E943D02811125C04E
:1005C00080E090E0892B41F080E090E0892B21F0E1
:1005D0000E94000081111CC080E090E0892B41F056
:1005E00080E090E0892B21F00E940000811113C06F
:1005F00080E090E0892BA1F080E090E0892B81F0F1
:100600000E94000081110AC008950E940000D8CF06
:100610000E940000E1CF0E940000EACF0C9400008D
:100620000895823109F466C0B8F4823069F18330EC
:1006300009F073C070934F0260934E0289EE93E00D
:10064000909303028093020280916A00837F84600A
:1006500080936A00ED9A5FC0843141F1C8F1853121
:1006600009F05BC0709351026093500283EE93E0F7
:100670009093050280930402809169008C7F8160D1
:1006800080936900E89A47C070934D0260934C02D2
:100690008FEE93E0909301028093000280916A00B4
:1006A0008C7F816080936A00EC9A35C0709353020E
:1006B000609352028DED93E09093070280930602BF
:1006C00080916900837F846080936900E99A23C0E8
:1006D000709355026093540287ED93E09093090262
:1006E00080930802809169008F7C8061809369000B
:1006F000EA9A11C0709357026093560281ED93E01D
:1007000090930B0280930A02809169008F7380643A
:1007100080936900EB9A81E0089580E00895DC0100
:10072000ED91FD918081ED91FD919081ED91FD9193
:100730006C9163708E2309F064609F2309F06860F8
:10074000ECEAF3E0E60FF11D659565956D936D910B
:100750007D918D919D91099423C01AC012C016C03D
:1007600010C01EC009C014C013C006C019C009C003
:100770000DC007C00DC014C0625070408040904052
:100780000BC0615070408040904006C06E5F01C059
:100790006F5F7F4F8F4F9F4F9E938E937E936E938D
:1007A000089580915602909157020C948F03809186
:1007B0005402909155020C948F03809152029091B3
:1007C00053020C948F0380915002909151020C942B
:1007D0008F0380914E0290914F020C948F03809171
:1007E0004C0290914D020C948F034F925F926F9246
:1007F0007F928F929F92AF92BF92CF92DF92EF92B1
:10080000FF920F931F93CF93DF93CDB7DEB7289757
:100810000FB6F894DEBF0FBECDBF809176029091E7
:100820007702A0917802B091790280936B02909345
:100830006C02A0936D02B0936E0280917A02909147
:100840007B02A0917C02B0917D0280936F02909315
:100850007002A0937102B0937202809148038230BB
:1008600030F4F8948DE393E00E948F0301C0F89474
:100870008091440390914503A0914603B0914703B2
:1008800078948093760290937702A0937802B09345
:10089000790280913C03823030F4F89481E393E054
:1008A0000E948F0301C0F89480913803909139031E
:1008B000A0913A03B0913B03789480937A0290938D
:1008C0007B02A0937C02B0937D02809129039091DA
:1008D0002A03A0912B03B0912C0380932D039093B6
:1008E0002E03A0932F03B09330030E94820A6B0162
:1008F0007C016093290370932A0380932B039093C8
:100900002C038091760290917702A0917802B091A9
:10091000790280906B0290906C02A0906D02B09072
:100920006E02BC01CD01681979098A099B090E94F0
:100930000F0E4B015C016093600270936102809323
:1009400062029093630280917A0290917B02A0915F
:100950007C02B0917D0240906F02509070026090D6
:10096000710270907202BC01CD016419750986098B
:1009700097090E940F0E2B013C0160936402709353
:100980006502809366029093670280912D03909197
:100990002E03A0912F03B0913003A7019601281BCD
:1009A000390B4A0B5B0BCA01B9010E940D0E20E006
:1009B00030E04AE754E40E94FC0F6B017C01A30184
:1009C0009201C501B4010E94900F22ED33E54BEF77
:1009D00051E40E946E0E20E030E048EC52E40E94A8
:1009E000FC0F20E030E040E05FE30E946E0EA701C4
:1009F00096010E94FC0F60935A0370935B038093EF
:100A00005C0390935D03A3019201C501B4010E94B0
:100A10008F0F22ED33E54BEF51E40E946E0E20E084
:100A200030E048EC52E40E94FC0F20E030E040E06F
:100A30005FE30E946E0EA70196010E94FC0F609377
:100A40005E0370935F0380936003909361030E9441
:100A5000FE0D109252031092530310925403109201
:100A600055030E94FE0D10925603109257031092E8
:100A700058031092590380905A0390905B03A09002
:100A80005C03B0905D0320E030E040E251E460910F
:100A90005E0370915F0380916003909161030E94F7
:100AA0006E0E2B013C019B01AC01C501B4010E94FB
:100AB000900F20E030E040EA50E40E94FC0F698390
:100AC0007A838B839C8360935C0270935D02809336
:100AD0005E0290935F02C0905203D0905303E09067
:100AE0005403F090550320E030E0A901C701B6019E
:100AF0000E94900F20E030E040EA50E40E94FC0F9A
:100B00006D837E838F839887609358027093590218
:100B100080935A0290935B02A3019201C501B40134
:100B20000E948F0F20E030E040EA50E40E94FC0F6A
:100B30004B015C0120E030E040EA50E4C701B6011F
:100B40000E94FC0FAB01BC019501840184E993E094
:100B50000E948E0A6B017C0120E030E0A9010E9416
:100B60009D1087FF0DC020E030E0A901C701B6014C
:100B70000E949D10181624F0F7FAF094F7F8F094FC
:100B800061E085E00E94DA08C701B6010E946E109C
:100B900070E084E00E94940909811A812B813C81D4
:100BA0004D815E816F81788582E693E00E948E0A96
:100BB0006B017C0120E030E0A9010E949D1087FFBD
:100BC0000DC020E030E0A901C701B6010E949D10D0
:100BD000181624F0F7FAF094F7F8F09461E086E044
:100BE0000E94DA08C701B6010E946E1070E089E029
:100BF00028960FB6F894DEBF0FBECDBFDF91CF9120
:100C00001F910F91FF90EF90DF90CF90BF90AF902A
:100C10009F908F907F906F905F904F900C9494096D
:100C20000C9442110C9442110C9442111F920F9299
:100C30000FB60F9211242F933F938F939F93AF93EF
:100C4000BF938091840290918502A0918602B09119
:100C500087023091830223E0230F2D3720F4019681
:100C6000A11DB11D05C026E8230F0296A11DB11DCF
:100C7000209383028093840290938502A09386023E
:100C8000B09387028091880290918902A0918A0294
:100C9000B0918B020196A11DB11D809388029093A3
:100CA0008902A0938A02B0938B02BF91AF919F916A
:100CB0008F913F912F910F900FBE0F901F9018951D
:100CC0001F920F920FB60F9211240BB60F922F9313
:100CD0003F934F935F936F937F938F939F93AF93C4
:100CE000BF93EF93FF93E0910E02F0910F021995DD
:100CF000FF91EF91BF91AF919F918F917F916F91F4
:100D00005F914F913F912F910F900BBE0F900FBEAF
:100D10000F901F9018951F920F920FB60F921124EB
:100D20000BB60F922F933F934F935F936F937F93E5
:100D30008F939F93AF93BF93EF93FF93E0910C0238
:100D4000F0910D021995FF91EF91BF91AF919F9195
:100D50008F917F916F915F914F913F912F910F9064
:100D60000BBE0F900FBE0F901F9018951F920F9201
:100D70000FB60F9211240BB60F922F933F934F9300
:100D80005F936F937F938F939F93AF93BF93EF93F3
:100D9000FF93E0910202F09103021995FF91EF9108
:100DA000BF91AF919F918F917F916F915F914F9183
:100DB0003F912F910F900BBE0F900FBE0F901F9081
:100DC00018951F920F920FB60F9211240BB60F9227
:100DD0002F933F934F935F936F937F938F939F9343
:100DE000AF93BF93EF93FF93E0910002F091010264
:100DF0001995FF91EF91BF91AF919F918F917F9145
:100E00006F915F914F913F912F910F900BBE0F907B
:100E10000FBE0F901F9018951F920F920FB60F9252
:100E200011240BB60F922F933F934F935F936F93C1
:100E30007F938F939F93AF93BF93EF93FF93E09133
:100E40000A02F0910B021995FF91EF91BF91AF91BA
:100E50009F918F917F916F915F914F913F912F91D2
:100E60000F900BBE0F900FBE0F901F9018951F9202
:100E70000F920FB60F9211240BB60F922F933F9340
:100E80004F935F936F937F938F939F93AF93BF9392
:100E9000EF93FF93E0910802F09109021995FF91F9
:100EA000EF91BF91AF919F918F917F916F915F91E2
:100EB0004F913F912F910F900BBE0F900FBE0F904F
:100EC0001F9018951F920F920FB60F9211240BB618
:100ED0000F922F933F934F935F936F937F938F93D3
:100EE0009F93AF93BF93EF93FF93E0910602F0912E
:100EF00007021995FF91EF91BF91AF919F918F914B
:100F00007F916F915F914F913F912F910F900BBE09
:100F10000F900FBE0F901F9018951F920F920FB653
:100F20000F9211240BB60F922F933F934F935F9321
:100F30006F937F938F939F93AF93BF93EF93FF93A1
:100F4000E0910402F09105021995FF91EF91BF9194
:100F5000AF919F918F917F916F915F914F913F9151
:100F60002F910F900BBE0F900FBE0F901F901895F2
:100F70001F920F920FB60F9211240BB60F922F9360
:100F80003F934F935F936F937F938F939F93AF9311
:100F9000BF93EF93FF938CE892E00E944702FF918A
:100FA000EF91BF91AF919F918F917F916F915F91E1
:100FB0004F913F912F910F900BBE0F900FBE0F904E
:100FC0001F9018951F920F920FB60F9211240BB617
:100FD0000F922F938F939F93EF93FF93E0919C0237
:100FE000F0919D028081E091A202F091A30282FD26
:100FF00012C090818091A5028F5F8F732091A6020D
:10100000821751F0E091A502F0E0E457FD4F958F73
:101010008093A50201C08081FF91EF919F918F91F4
:101020002F910F900BBE0F900FBE0F901F90189531
:101030001F920F920FB60F9211240BB60F922F939F
:101040003F934F935F936F937F938F939F93AF9350
:10105000BF93EF93FF93E0918102F0918202199583
:10106000FF91EF91BF91AF919F918F917F916F9180
:101070005F914F913F912F910F900BBE0F900FBE3C
:101080000F901F901895089508950F931F93CF9375
:10109000DF93EC01062F142F62E0802F0E94580985
:1010A00062E0812F0E945809802F90E0FC01EA59EC
:1010B000FD4FE491F0E0EE0FFF1FE85EFD4FA591BC
:1010C000B491B983A883FC01E455FD4F24912C838E
:1010D000812F90E0FC01EA59FD4FE491F0E0EE0F22
:1010E000FF1FE85EFD4F459154915B834A83FC01ED
:1010F000E455FD4F94919D831F82188619861A86A8
:10110000EBE3FFE13197F1F7EC91E22331E009F4F1
:1011100030E0DA01EC91E92309F032603E83BE0150
:10112000802F0E9411038B87BE01812F0E94110323
:101130009B85890F8B87DF91CF911F910F91089528
:1011400008950C9442110895CF93DF93EC019A8196
:1011500091110AC0FB0183819481A581B6818B83A3
:101160009C83AD83BE8321C0DA01FB01913059F429
:1011700023813481458156816B817C818D819E8163
:101180000E94900F0EC0923081F413962D913D91E4
:101190004D915C91169763817481858196810E943F
:1011A0008F0F6B837C838D839E83DF91CF91089516
:1011B0000E94CB11362F90E0FC01EE50FD4F449180
:1011C000FC01E455FD4F2491FC01EA59FD4F949137
:1011D000992309F46CC0442309F455C050E0FA0186
:1011E0003197E231F10508F04EC08827EE58FF4FE5
:1011F0008F4F0C94A210809180008F7707C0809150
:1012000080008F7D03C080918000877F8093800065
:101210003AC084B58F7702C084B58F7D84BD33C05A
:101220008091B0008F7703C08091B0008F7D809354
:10123000B00029C0809190008F7707C08091900006
:101240008F7D03C080919000877F809390001BC0AA
:101250008091A0008F7707C08091A0008F7D03C090
:101260008091A000877F8093A0000DC08091200115
:101270008F7707C0809120018F7D03C0809120016E
:10128000877F80932001E92FF0E0EE0FFF1FE45BE2
:10129000FD4FA591B4919FB7F894311104C08C9182
:1012A0002095282302C0EC912E2B2C939FBF0895EC
:1012B000CF93DF9390E0FC01E455FD4F2491FC01B6
:1012C000EA59FD4F8491882361F190E0880F991FBE
:1012D000FC01EE5CFD4FC591D491FC01E45BFD4F38
:1012E000A591B491611109C09FB7F89488812095A8
:1012F00082238883EC912E230BC0623061F49FB768
:10130000F8948881322F309583238883EC912E2B9B
:101310002C939FBF06C08FB7F894E8812E2B2883AB
:101320008FBFDF91CF9108951F93CF93DF93182F35
:10133000EB0161E00E945809209711F460E004C0BD
:10134000CF3FD10539F461E0812FDF91CF911F911B
:101350000C94DA08E12FF0E0EE50FD4FE4918E2F6F
:1013600090E0FC013197E231F10508F09DC088273B
:10137000EC57FF4F8F4F0C94A21084B5806884BD4A
:10138000C7BD97C084B5806284BDC8BD92C080913E
:101390008000806880938000D0938900C09388008B
:1013A00088C080918000806280938000D0938B0001
:1013B000C0938A007EC08091800088608093800006
:1013C000D0938D00C0938C0074C08091B000806871
:1013D0008093B000C093B3006CC08091B000806275
:1013E0008093B000C093B40064C080919000806886
:1013F00080939000D0939900C09398005AC0809138
:101400009000806280939000D0939B00C0939A00DC
:1014100050C080919000886080939000D0939D0090
:10142000C0939C0046C08091A00080688093A0007B
:101430008091A0008F7B8093A000D093A900C093DF
:10144000A80037C08091A00080628093A000D09354
:10145000AB00C093AA002DC08091A000886080934B
:10146000A000D093AD00C093AC0023C080912001B8
:10147000806880932001D0932901C093280119C06E
:1014800080912001806280932001D0932B01C09332
:101490002A010FC080912001886080932001D093A1
:1014A0002D01C0932C0105C0C038D1050CF04BCFE5
:1014B00045CFDF91CF911F9108953FB7F894809168
:1014C000880290918902A0918A02B0918B0226B580
:1014D000A89B05C02F3F19F00196A11DB11D3FBF6C
:1014E000BA2FA92F982F8827820F911DA11DB11DFA
:1014F000BC01CD0142E0660F771F881F991F4A95F6
:10150000D1F708952FB7F894609184027091850205
:1015100080918602909187022FBF08954F925F922B
:101520006F927F928F929F92AF92BF92EF92FF92B3
:101530000F931F93CF93DF93CDB7DEB762970FB6AC
:10154000F894DEBF0FBECDBF7C012A013B010F879F
:10155000188B298B3A8BFC0182899389A489B589E0
:1015600086879787A08BB18B0E94820AF701628BD6
:10157000738B848B958B0685178520893189601B39
:10158000710B820B930B0E940D0E20E030E04AE7B6
:1015900054E40E94FC0F4B015C01F701818D928D98
:1015A000A38DB48D80A391A3A2A3B3A32F85388963
:1015B00049895A89C301B2010E948F0FF701618FD7
:1015C000728F838F948F08E312E0198708871A8639
:1015D0001B861C861D861E861A830983208D2B83FD
:1015E0006C837D838E839F83AE01485F5F4FBE0116
:1015F0006F5F7F4FC70184960E94A40819870887F0
:10160000F701878D8A8780A191A1A2A1B3A18B87C1
:101610009C87AD87BE871A830983808D8B83818DDC
:10162000928DA38DB48D8C839D83AE83BF83AE01D9
:10163000485F5F4FBE016F5F7F4FC7018B960E946F
:10164000A408F70127A130A541A552A5668177819D
:10165000808591850E946E0EA50194010E946E0EF8
:101660002B013C01F701218D328D438D548D628118
:101670007381848195810E946E0E9B01AC01C30130
:10168000B2010E94900F2B013C01F70126A537A55E
:1016900040A951A962857385848595850E946E0E47
:1016A000A50194010E94FC0F9B01AC01C301B20192
:1016B0000E94900F62960FB6F894DEBF0FBECDBFAA
:1016C000DF91CF911F910F91FF90EF90BF90AF905E
:1016D0009F908F907F906F905F904F900895789437
:1016E00084B5826084BD84B5816084BD85B5826027
:1016F00085BD85B5816085BD80916E0081608093D8
:101700006E00109281008091810082608093810040
:101710008091810081608093810080918000816050
:10172000809380008091B10084608093B1008091AB
:10173000B00081608093B0008091910082608093BE
:101740009100809191008160809391008091900040
:101750008160809390008091A10082608093A100BD
:101760008091A10081608093A1008091A0008160A0
:101770008093A0008091210182608093210180915B
:1017800021018160809321018091200181608093FB
:10179000200180917A00846080937A0080917A00A1
:1017A000826080937A0080917A00816080937A00D1
:1017B00080917A00806880937A001092C100F8943A
:1017C000109244031092450310924603109247036F
:1017D0007894F894109238031092390310923A03D7
:1017E00010923B037894E0919C02F0919D0282E07C
:1017F0008083E0919802F09199021082E0919A0220
:10180000F0919B0280E180831092A402E091A002FB
:10181000F091A10286E08083E0919E02F0919F0208
:10182000808180618083E0919E02F0919F0280819F
:1018300088608083E0919E02F0919F0280818068A1
:101840008083E0919E02F0919F0280818F7D808352
:101850000E945D0A4B015C0180EDC82E87E0D82E06
:10186000E12CF12C0E945D0ADC01CB018819990959
:10187000AA09BB09883E9340A105B10598F321E070
:10188000C21AD108E108F10888EE880E83E0981E9C
:10189000A11CB11CC114D104E104F10419F70E9488
:1018A000820A6093290370932A0380932B039093F9
:1018B0002C031092200180E18093210183E080932A
:1018C000800284ED90E390937F0280937E02909358
:1018D00027018093260180912101887F8093210137
:1018E0008091210183608093210185EF93E09093A3
:1018F00082028093810281E08093730078949091BA
:10190000210180918002892B809321010E94D802BD
:10191000FDCF82E693E00E94A00884E993E00C9456
:10192000A0084F925F926F927F928F929F92AF9298
:10193000BF92CF92DF92EF92FF920F931F93CF93BC
:10194000DF93ECE8F2E01382128288EE93E0A0E0ED
:10195000B0E084839583A683B7838EE192E0918380
:10196000808385EC90E09587848784EC90E097876E
:10197000868780EC90E0918B808B81EC90E0938B5C
:10198000828B82EC90E0958B848B86EC90E0978B39
:10199000868B118E128E138E148E88E492E09093B3
:1019A000C7038093C603C4E9D3E080E4682E82E0D5
:1019B000782E7982688208E312E01F8B0E8B188ED6
:1019C000198E1A8E1B8E1C8E1E8F0D8F1F8E18A2C5
:1019D00019A21AA21BA21DA30CA31FA218A619A626
:1019E0001AA61CA70BA71EA61FA618AA19AA812C07
:1019F000912C90E8A92E9FE3B92E8A829B82AC821B
:101A0000BD822DECC22E2CECD22EED2C2DE3F22E2D
:101A1000CE82DF82E886F986CA86DB86EC86FD8682
:101A2000442443944EA232E0532E5DA60E94820AC3
:101A30006A8B7B8B8C8B9D8B0E94820A6E877F8743
:101A4000888B998BC2E6D3E0798268821F8B0E8BDC
:101A5000188E198E1A8E1B8E1C8E1E8F0D8F1F8E48
:101A600018A219A21AA21BA21DA30CA31FA218A69A
:101A700019A61AA61CA70BA71EA61FA618AA19AA64
:101A80008A829B82AC82BD82CE82DF82E886F98622
:101A9000CA86DB86EC86FD864EA25DA60E94820A7F
:101AA0006A8B7B8B8C8B9D8B0E94820A6E877F87D3
:101AB000888B998BEAE5F3E01082118212821382FF
:101AC0001482158216821782E2E5F3E010821182F9
:101AD000128213821482158216821782EFE4F3E0D9
:101AE00080E392E09183808328E32283ECE4F3E0B7
:101AF000918380832AE32283E9E4F3E09183808366
:101B000089E3828342E163E18DE393E00E9445082B
:101B100043E062E081E393E00E9445080E94820A6C
:101B200060932D0370932E0380932F0390933003C3
:101B30000E94820A6093290370932A0380932B03E7
:101B400090932C03DF91CF911F910F91FF90EF9015
:101B5000DF90CF90BF90AF909F908F907F906F90CD
:101B60005F904F9008958F929F92AF92BF92CF92C5
:101B7000DF92EF92FF92CF93DF93EC01688179813E
:101B80008A819B81611571058105910521F464E2CB
:101B900079ED8BE597E02DE133EF41E050E00E94D5
:101BA0002C0F49015A019B01AC01A7EAB1E40E9444
:101BB0004B0F6B017C01ACEEB4EFA50194010E94C8
:101BC000590FDC01CB018C0D9D1DAE1DBF1DB7FF54
:101BD00003C00197A109B04888839983AA83BB8376
:101BE0009F77DF91CF91FF90EF90DF90CF90BF90E4
:101BF000AF909F908F9008950C94B30D80E192E088
:101C00000C94B30DA0E0B0E0809310029093110209
:101C1000A0931202B09313020895E89409C097FBB1
:101C20003EF490958095709561957F4F8F4F9F4FB3
:101C30009923A9F0F92F96E9BB279395F6958795F7
:101C400077956795B795F111F8CFFAF4BB0F11F4BA
:101C500060FF1BC06F5F7F4F8F4F9F4F16C0882361
:101C600011F096E911C0772321F09EE8872F762F97
:101C700005C0662371F096E8862F70E060E02AF0D8
:101C80009A95660F771F881FDAF7880F96958795C4
:101C900097F90895990F0008550FAA0BE0E8FEEF99
:101CA00016161706E807F907C0F012161306E40720
:101CB000F50798F0621B730B840B950B39F40A2619
:101CC00061F0232B242B252B21F408950A2609F4F7
:101CD000A140A6958FEF811D811D08950E94810E60
:101CE0000C94F20E0E94E40E38F00E94EB0E20F0ED
:101CF000952311F00C94DB0E0C94E10E11240C943E
:101D0000260F0E94030F70F3959FC1F3950F50E0CB
:101D1000551F629FF001729FBB27F00DB11D639F9D
:101D2000AA27F00DB11DAA1F649F6627B00DA11D43
:101D3000661F829F2227B00DA11D621F739FB00DE9
:101D4000A11D621F839FA00D611D221F749F332759
:101D5000A00D611D231F849F600D211D822F762FF2
:101D60006A2F11249F5750409AF0F1F088234AF0CF
:101D7000EE0FFF1FBB1F661F771F881F915050403B
:101D8000A9F79E3F510580F00C94DB0E0C94260FB2
:101D90005F3FE4F3983ED4F3869577956795B795C2
:101DA000F795E7959F5FC1F7FE2B880F911D9695DC
:101DB000879597F9089597F99F6780E870E060E04C
:101DC00008959FEF80EC089500240A9416161706D4
:101DD00018060906089500240A941216130614061C
:101DE00005060895092E0394000C11F4882352F07F
:101DF000BB0F40F4BF2B11F460FF04C06F5F7F4F37
:101E00008F4F9F4F089557FD9058440F551F59F01D
:101E10005F3F71F04795880F97FB991F61F09F3FD7
:101E200079F087950895121613061406551FF2CF00
:101E30004695F1DF08C0161617061806991FF1CF50
:101E400086957105610508940895E894BB27662777
:101E50007727CB0197F90895052E97FB1EF4009480
:101E60000E94430F57FD07D00E945E0F07FC03D06E
:101E70004EF40C94430F50954095309521953F4F6B
:101E80004F4F5F4F089590958095709561957F4F66
:101E90008F4F9F4F08950E94800FA59F900DB49F74
:101EA000900DA49F800D911D11240895B7FF0C94EF
:101EB0004B0F0E944B0F821B930B0895A1E21A2E29
:101EC000AA1BBB1BFD010DC0AA1FBB1FEE1FFF1FDE
:101ED000A217B307E407F50720F0A21BB30BE40B2E
:101EE000F50B661F771F881F991F1A9469F7609575
:101EF0007095809590959B01AC01BD01CF0108952F
:101F0000A29FB001B39FC001A39F700D811D11243A
:101F1000911DB29F700D811D1124911D089550587F
:101F2000BB27AA270E94A70F0C94F20E0E94E40E72
:101F300038F00E94EB0E20F039F49F3F19F426F49C
:101F40000C94E10E0EF4E095E7FB0C94DB0EE92F08
:101F50000E94030F58F3BA176207730784079507A7
:101F600020F079F4A6F50C94250F0EF4E0950B2ED5
:101F7000BA2FA02D0B01B90190010C01CA01A001DB
:101F80001124FF27591B99F0593F50F4503E68F136
:101F90001A16F040A22F232F342F4427585FF3CF77
:101FA000469537952795A795F0405395C9F77EF448
:101FB0001F16BA0B620B730B840BBAF09150A1F091
:101FC000FF0FBB1F661F771F881FC2F70EC0BA0F17
:101FD000621F731F841F48F4879577956795B7959F
:101FE000F7959E3F08F0B0CF9395880F08F099279A
:101FF000EE0F9795879508950E9410100C94F20E9D
:102000000E94EB0E58F00E94E40E40F029F45F3F6E
:1020100029F00C94DB0E51110C94260F0C94E10E58
:102020000E94030F68F39923B1F3552391F3951B95
:10203000550BBB27AA2762177307840738F09F5FE9
:102040005F4F220F331F441FAA1FA9F335D00E2E56
:102050003AF0E0E832D091505040E695001CCAF7C3
:102060002BD0FE2F29D0660F771F881FBB1F261786
:1020700037074807AB07B0E809F0BB0B802DBF015D
:10208000FF2793585F4F3AF09E3F510578F00C942C
:10209000DB0E0C94260F5F3FE4F3983ED4F3869555
:1020A00077956795B795F7959F5FC9F7880F911D4D
:1020B0009695879597F90895E1E0660F771F881F39
:1020C000BB1F621773078407BA0720F0621B730BEC
:1020D000840BBA0BEE1F88F7E09508950E940B0F52
:1020E00088F09F5798F0B92F9927B751B0F0E1F0D9
:1020F000660F771F881F991F1AF0BA95C9F714C089
:10210000B13091F00E94250FB1E008950C94250F95
:10211000672F782F8827B85F39F0B93FCCF38695C1
:1021200077956795B395D9F73EF49095809570951E
:1021300061957F4F8F4F9F4F08950E944A0E08F47C
:102140008FEF0895EE0FFF1F881F8BBF0790F6914A
:10215000E02D19940F931F93CF93DF938230910555
:1021600010F482E090E0E091D203F091D30320E0FC
:1021700030E0A0E0B0E0309719F140815181028158
:10218000138148175907C8F08417950769F4109709
:1021900031F012960C93129713961C9327C000935C
:1021A000D2031093D30322C02115310519F0421731
:1021B000530718F49A01BD01EF01DF01F801DBCFED
:1021C00021153105F9F0281B390B2430310580F435
:1021D0008A819B816115710521F0FB0193838283C4
:1021E00004C09093D3038093D203FE01329644C07F
:1021F000FE01E20FF31F819391932250310939833D
:1022000028833AC02091D0033091D103232B41F48D
:1022100020911602309117023093D1032093D003FE
:1022200020911402309115022115310541F42DB78A
:102230003EB74091180250911902241B350BE091D2
:10224000D003F091D103E217F307A0F42E1B3F0B4C
:102250002817390778F0AC014E5F5F4F2417350718
:1022600048F04E0F5F1F5093D1034093D0038193EA
:10227000919302C0E0E0F0E0CF01DF91CF911F9198
:102280000F910895CF93DF93009709F481C0FC016B
:10229000329713821282A091D203B091D303109788
:1022A00081F420813181820F931F2091D0033091DE
:1022B000D1032817390751F5F093D103E093D003E8
:1022C00067C0ED0120E030E0CE17DF0740F44A811F
:1022D0005B819E0141155105F1F0EA01F5CFD383F1
:1022E000C28340815181840F951FC817D90759F4C3
:1022F00088819981840F951F0296918380838A81BA
:102300009B81938382832115310529F4F093D303B4
:10231000E093D2033DC0E901FB83EA8349915991DF
:10232000C40FD51FEC17FD0761F480819181840FE4
:10233000951F0296E90199838883828193819B830B
:102340008A83E0E0F0E012968D919C9113970097BC
:1023500019F0FD01DC01F7CF8D919C9111979D0142
:102360002E5F3F4F820F931F2091D0033091D103F6
:102370002817390769F4309729F41092D303109283
:10238000D20302C013821282B093D103A093D00370
:10239000DF91CF91089581E090E0F8940C94D011F2
:1023A00011E0CDE9D1E000E006C0802FFE010E94DF
:1023B000A2102196011DCE39D10780E00807A9F7A8
:0423C000F894FFCFBF
:1023C400D101D101D101D101D101D101D101D10179
:1023D400010000000000D403800000000000690236
:1023E400D2010002B60231020F02230200000000F3
:1023F4004408100600000000A308140600000000B2
:0C240400A008A108000000004308120618
:00000001FF
