:100000000C947A020C94310E0C94060E0C94DB0DB9
:100010000C94B00D0C94850D0C945A0D0C942F0D6E
:100020000C94040D0C94AB020C94AB020C94AB0238
:100030000C94AB020C94AB020C94AB020C94AB028C
:100040000C94AB020C94AB020C94AB020C94AB027C
:100050000C94AB020C94AB020C94AB020C94BA0C53
:100060000C94AB020C947E070C9454070C94AB02D6
:100070000C94AB020C94AB020C94AB020C94AB024C
:100080000C94AB020C94AB020C94AB020C94AB023C
:100090000C94AB020C94AB020C94AB020C94AB022C
:1000A0000C94AB020C94AB020C94AB020C94AB021C
:1000B0000C94AB020C94AB020C94AB020C94AB020C
:1000C0000C94AB020C94AB020C94B4070C94AB02EE
:1000D0000C94AB020C94AB020C94AB020C94AB02EC
:1000E0000C94AB02410B440B330B370B3B0B7B0BDC
:1000F000480B4C0B520B560B5A0B600B640B680BE6
:100100007B0B6E0B720B760BF50BFA0BFF0B090CCE
:10011000130C8C0C1D0C250C2D0C370C410C4B0CAE
:100120005A0C640C8C0C6E0C780C820C084AD73B71
:100130003BCE016E84BCBFFDC12F3D6C74319ABDB6
:1001400056833DDA3D00C77F11BED9E4BB4C3E91DA
:100150006BAAAABE000000803F05A84CCDB2D44EC9
:10016000B93836A9020C50B9918688083CA6AAAACB
:100170002ABE000000803F07634236B79BD8A71A0B
:1001800039685618AEBAAB558C1D3CB7CC5763BD19
:100190006DEDFD753EF6177231BF000000803F081F
:1001A000000000BE922449123EABAAAA2ABECDCCC2
:1001B000CC4C3E00000080BEABAAAAAA3E000000C4
:1001C00000BF000000803F0000000000084178D31D
:1001D000BB4387D1133D190E3CC3BD4282AD2B3EBC
:1001E00068EC8276BED98FE1A93E4C80EFFFBE015C
:1001F000C4FF7F3F0000000000000C94250C0C940D
:10020000E0070C94FA0B0C94FF0B0C94F50B0C9478
:10021000640B0C944B0C0C946E0B0C9445080C94D2
:1002200035040C942F040C9447080C948C0C0C94FB
:1002300044080C942D0C0C94840F0C948C0F0C948B
:100240001D0C0C945A0C0C944C0B0C943B040C9409
:10025000760B0C94DF070C94090C0C94680B0C942F
:10026000440B0C94F7080C94600B0C94640C0C94E5
:10027000330B0C941A030C94130C0C945A0B0C941F
:100280007B0B0C94D4020C94820C0C94410B0C94B8
:10029000F8080C946E0C0C94480B0C94B1020C945E
:1002A0003F040C94560B0C94720B0C94E2020C94C9
:1002B0003B0B0C94C0020C943D040C94370B0C9433
:1002C000780C0C9467030C94370C0C9441040C9438
:1002D000410C0C94520B00407A10F35A00A0724E5D
:1002E00018090010A5D4E80000E87648170000E4DB
:1002F0000B54020000CA9A3B000000E1F505000023
:1003000080969800000040420F000000A086010087
:100310000000102700000000E80300000000640057
:10032000000000000A0000000000010000000000C2
:100330002C76D888DC674F0823DFC1DFAE59E1B1E6
:10034000B796E5E3E453C63AE651997696E8E6C2F5
:100350008426EB898C9B62ED407C6FFCEFBC9C9FFC
:1003600040F2BAA56FA5F490055A2AF75C936B6C1E
:10037000F9676DC11BFCE0E40D47FEF520E6B50012
:10038000D0ED902E0300943577050080841E080080
:1003900000204E0A000000C80C333333330F986E30
:1003A00012831141EF8D2114893BE65516CFFEE6ED
:1003B000DB18D1844B381BF77C1D901DA4BBE424B3
:1003C000203284725E228100C9F124ECA1E53D2730
:1003D000000020002300260029002C002F003200FE
:1003E00000010000030106010901000021002400B2
:1003F00027002A002D003000330001010000040115
:1004000007010A0100002200250028002B002E0011
:100410003100340002010000050108010B0105054F
:100420000505070508080808020202020A0A08086A
:100430000404040401010101010101010303030398
:1004400003030303040707070C0C0C0C0C0C0C0C27
:100450000202020206060606060606060B0B0B0B38
:100460000B0B0B0B0102102020080810204010205D
:100470004080020102010804020101020408102068
:100480004080804020100804020180040201804066
:1004900020100804020108040201010204081020CF
:1004A0004080010204081020408000000A0B02096D
:1004B0000C0D0E08070304010000000000000000FE
:1004C000000000000000000000000000000000002C
:1004D00000000000000012111000000000000000E9
:1004E000000000000000000000000000000000000C
:1004F0008C0F840F11241FBECFEFD1E2DEBFCDBF22
:1005000000E00CBF23E0A6E5B2E001C01D92A23FCF
:10051000B207E1F712E0A0E0B2E0EEE9F2E300E0BA
:100520000BBF02C007900D92A635B107D9F712E0B4
:10053000C9E7D2E000E006C021970109802FFE0143
:100540000E941A17C837D10780E00807A9F70E9450
:100550005C0E0C943D190C940000089580E090E02E
:100560000895FC01538D448D252F30E0842F90E0B9
:10057000821B930B541710F0CF960895019708959E
:10058000FC01918D828D981761F0828DDF01A80F9B
:10059000B11D5D968C91928D9F5F9F73928F90E0BD
:1005A00008958FEF9FEF0895FC01918D828D98172C
:1005B00031F0828DE80FF11D858D90E008958FEF69
:1005C0009FEF0895FC01918D228D892F90E0805C32
:1005D0009F4F821B91098F73992708958DE892E0B0
:1005E0000E94E20221E0892B09F420E0822F089585
:1005F000FC01848DDF01A80FB11DA35ABF4F2C91C0
:10060000848D90E001968F739927848FA689B7898E
:100610002C93A089B1898C91837080648C93938D85
:10062000848D981306C00288F389E02D80818F7D28
:1006300080830895EF92FF920F931F93CF93DF93E0
:10064000EC0181E0888F9B8D8C8D981305C0E88923
:10065000F989808185FD26C0F62E0B8D10E00F5F95
:100660001F4F0F731127E02E8C8DE8120CC00FB6B0
:1006700007FCFACFE889F989808185FFF5CFCE01A3
:100680000E94F802F1CF8B8DFE01E80FF11DE35AB5
:10069000FF4FF0829FB7F8940B8FEA89FB89808126
:1006A00080620AC09FB7F894EE89FF896083E88969
:1006B000F98980818370806480839FBF81E090E0AE
:1006C000DF91CF911F910F91FF90EF900895CF93FD
:1006D000DF93EC01888D8823C9F0EA89FB8980814A
:1006E00085FD05C0A889B9898C9186FD0FC00FB61C
:1006F00007FCF5CF808185FFF2CFA889B9898C915D
:1007000085FFEDCFCE010E94F802E7CFDF91CF91B8
:10071000089580E090E0892B21F00E94EE02811183
:1007200025C080E090E0892B41F080E090E0892BAB
:1007300021F00E94000081111CC080E090E0892B14
:1007400041F080E090E0892B21F00E9400008111AF
:1007500013C080E090E0892BA1F080E090E0892B2D
:1007600081F00E94000081110AC008950E940000DB
:10077000D8CF0E940000E1CF0E940000EACF0C9485
:10078000000008958230A1F0833029F5709359025A
:10079000609358028FE294E09093030280930202E8
:1007A00080916A00837F846080936A00ED9A11C013
:1007B000709357026093560285E394E09093010290
:1007C0008093000280916A008C7F816080936A0030
:1007D000EC9A81E0089580E00895DC01ED91FD91AF
:1007E0008081ED91FD919081ED91FD916C9163700F
:1007F0008E2309F064609F2309F06860EAE0F4E06A
:10080000E60FF11D659565956D936D917D918D91C7
:100810009D91099423C01AC012C016C010C01EC0FA
:1008200009C014C013C006C019C009C00DC007C05C
:100830000DC014C062507040804090400BC06150A9
:1008400070408040904006C06E5F01C06F5F7F4F78
:100850008F4F9F4F9E938E937E936E9308958091BA
:100860005802909159020C94ED0380915602909198
:1008700057020C94ED030C94BA170C94BA170C940D
:10088000BA174F925F926F927F928F929F92AF9220
:10089000BF92CF92DF92EF92FF920F931F93CF936D
:1008A000DF93CDB7DEB7A4970FB6F894DEBF0FBEC7
:1008B000CDBF82E593E00E94EE0980937F0288E538
:1008C00093E00E94EE0980937D0285E593E00E940B
:1008D000EE0980937E028091800290918102A09126
:1008E0008202B09183028093750290937602A09366
:1008F0007702B09378028091840290918502A09152
:100900008602B09187028093790290937A02A09335
:100910007B02B0937C0280915103823030F4F894D2
:1009200086E493E00E94ED0301C0F89480914D03AA
:1009300090914E03A0914F03B0915003789480930F
:10094000800290938102A0938202B09383028091EF
:100950003D03823030F4F89482E393E00E94ED038B
:1009600001C0F8948091390390913A03A0913B0320
:10097000B0913C0378948093840290938502A09375
:100980008602B0938702409080025090810260906E
:100990008202709083028091750290917602A091FC
:1009A0007702B0917802481A590A6A0A7B0A409283
:1009B0006A0250926B0260926C0270926D0280909B
:1009C000840290908502A0908602B0908702809168
:1009D000790290917A02A0917B02B0917C02881AF0
:1009E000990AAA0ABB0A80926E0290926F02A092A4
:1009F0007002B0927102C301B201680D791D8A1DA7
:100A00009B1D0E94741222E631EC4AED5DE30E94C8
:100A1000D31222E530E342E056E40E94751420E050
:100A200030E040E05FE30E94D3122DEC3CEC4CEC54
:100A30005DE30E9475146B017C01C501B40164196A
:100A40007509860997090E94741222E631EC4AED75
:100A50005DE30E94D31222E530E342E056E40E94B7
:100A6000751420E030E040E05FE30E94D3122DECEB
:100A70003CEC4CEC5DE30E947514698F7A8F8B8F90
:100A80009C8F2DEC3CEC4CEC5DE30E94D31220914A
:100A900063033091640340916503509166030E94A3
:100AA00092134B015C010E9470142B013C01C501A3
:100AB000B4010E94E015A30192010E9411144B01A0
:100AC0005C01609363037093640380936503909368
:100AD00066032DEC3CEC4CEC5DE3C701B6010E94D3
:100AE000D3122B013C01C501B4010E9470149B017B
:100AF000AC01C301B2010E94D3129B01AC01609111
:100B00005B0370915C0380915D0390915E030E9492
:100B1000921360935B0370935C0380935D039093E7
:100B20005E03C501B4010E94E0159B01AC01C30145
:100B3000B2010E94D3129B01AC0160915F037091DE
:100B4000600380916103909162030E94921360930D
:100B50005F037093600380936103909362032CE5BD
:100B60003FE842E45DE3698D7A8D8B8D9C8D0E9418
:100B7000D3122B013C019B01AC01C701B6010E94BD
:100B8000921326E933E44BE85CE30E947514698F05
:100B90007A8F8B8F9C8F609366027093670280932D
:100BA0006802909369028091670390916803A09115
:100BB0006903B0916A038D8F9E8FAF8FB8A32CE528
:100BC0003FE842E45DE360916B0370916C038091B8
:100BD0006D0390916E030E94D3124B015C019B0147
:100BE000AC016D8D7E8D8F8D98A10E94921326E9A8
:100BF00033E44BE85CE30E94751469A37AA38BA3EA
:100C00009CA360936202709363028093640290934A
:100C10006502A3019201C701B6010E94911326E962
:100C200033E44BE85CE30E9475146B017C01A50181
:100C300094016D8D7E8D8F8D98A10E94911326E970
:100C400033E44BE85CE30E947514AB01BC019701EF
:100C5000860189EA93E00E9424096B017C0120E06F
:100C600030E0A9010E94831518166CF420E030E0F2
:100C70004FE753E4C701B6010E9483151816E4F448
:100C8000A70196010DC020E030E04FE753ECC7010B
:100C9000B6010E946D1287FF0FC0A7019601505840
:100CA000C701B6010E94751420E030E04FE753E41D
:100CB0000E94D3126B017C01C701B6010E94E714A8
:100CC0007B01BF2CBB1CBB24BB1C6B2D86E00E9490
:100CD000120BB701F7FE03C071956195710989E0A8
:100CE0000E94CC0B098D1A8D2B8D3C8D49A15AA1E8
:100CF0006BA17CA187E793E00E9424096B017C0132
:100D000020E030E0A9010E94831518166CF420E061
:100D100030E04FE753E4C701B6010E94831518166F
:100D2000E4F4A70196010DC020E030E04FE753EC5A
:100D3000C701B6010E946D1287FF0FC0A70196017F
:100D40005058C701B6010E94751420E030E04FE70B
:100D500053E40E94D3126B017C016B2D85E00E944D
:100D6000120BC701B6010E94E7149B0177FF04C074
:100D700022273327261B370BB90184E00E94CC0BB6
:100D80004091630350916403609165037091660321
:100D9000CE0143960E94AC0A40915F0350916003DC
:100DA0006091610370916203CE010D960E94AC0ABE
:100DB00040915B0350915C0360915D0370915E0311
:100DC000CE0107960E94AC0A1A8219821C821B82ED
:100DD0001E821D8262E070E0CE0101960E94320AFE
:100DE000811105C0CE0101960E94870A0AC082E0E7
:100DF00090E09E838D8368E472E089819A810E94ED
:100E00003619BE01695F7F4FCE0101960E94990A93
:100E10006BE472E00E94F90ABE01635F7F4F0E949B
:100E2000990A6FE472E00E94F90ABE016D5E7F4F7D
:100E30000E94990ADC0114964D915C9115976D9171
:100E40007C918DE892E00E94F80842E050E063E572
:100E500072E08DE892E00E94F80889819A810E94F0
:100E6000BA178F8198850E94BA178D859E850E943A
:100E7000BA178B899C890E94BA17A4960FB6F8946A
:100E8000DEBF0FBECDBFDF91CF911F910F91FF90BD
:100E9000EF90DF90CF90BF90AF909F908F907F901A
:100EA0006F905F904F9008951F920F920FB60F9220
:100EB00011240BB60F922F933F934F935F936F9331
:100EC0007F938F939F93AF93BF93EF93FF938DE89F
:100ED00092E00E94F802FF91EF91BF91AF919F9134
:100EE0008F917F916F915F914F913F912F910F90D3
:100EF0000BBE0F900FBE0F901F9018951F920F9270
:100F00000FB60F9211240BB60F922F938F939F93CE
:100F1000EF93FF93E0919D02F0919E028081E0911A
:100F2000A302F091A40282FD12C090818091A602DA
:100F30008F5F8F732091A702821751F0E091A60274
:100F4000F0E0E357FD4F958F8093A60201C08081AA
:100F5000FF91EF919F918F912F910F900BBE0F906A
:100F60000FBE0F901F9018951F920F920FB60F9201
:100F700011240BB60F922F933F934F935F936F9370
:100F80007F938F939F93AF93BF93EF93FF93E091E2
:100F90008B02F0918C021995FF91EF91BF91AF9167
:100FA0009F918F917F916F915F914F913F912F9181
:100FB0000F900BBE0F900FBE0F901F9018950895C5
:100FC0000895EF92FF920F931F93CF93DF93EC015D
:100FD000062F142F62E0802F0E94900B62E0812F79
:100FE0000E94900B802F90E0FC01E25EFB4FE491A9
:100FF000F0E0EE0FFF1FE053FC4FA591B491B987CD
:10100000A887FC01EC59FB4F24912C87812F90E09D
:10101000FC01E25EFB4FE491F0E0EE0FFF1FE053B6
:10102000FC4F459154915B874A87FC01EC59FB4F7B
:1010300094919D871F86188A198A1A8AEBE3FFE12B
:101040003197F1F7EC91E22331E009F430E0DA0175
:10105000EC91E92309F032603E877E01B8E0EB0EA7
:10106000F11CB701802F0E94C2038B8BB701812F27
:101070000E94C2039B89890F8B8BDF91CF911F91B7
:101080000F91FF90EF90089508950C94BA1708956A
:10109000CF93DF93EC019A8191110AC0FB01838108
:1010A0009481A581B6818B839C83AD83BE8321C04F
:1010B000DA01FB01913059F4238134814581568155
:1010C0006B817C818D819E810E9492130EC0923033
:1010D00081F413962D913D914D915C91169763810A
:1010E0007481858196810E9491136B837C838D83AB
:1010F0009E83DF91CF910895FC0182E292E091837B
:1011000080838AE192E0978B868B108E118E128EEF
:10111000138E148E968F858F178E10A211A212A295
:1011200013A295A384A317A210A611A612A694A792
:1011300083A716A617A610AA11AA80E090E0A0E245
:10114000B2E482839383A483B58380E090E0AFEA26
:10115000B3E486839783A087B18780E090E0A0E026
:10116000B0E482879387A487B58781E086A382E075
:1011700085A72FB7F8948091EA039091EB03A09193
:10118000EC03B091ED032FBF828B938BA48BB58BB7
:101190002FB7F8948091EA039091EB03A091EC03B0
:1011A000B091ED032FBF86879787A08BB18B0895F1
:1011B000863308F0865390917B00282F2870977F04
:1011C000922B90937B008770806480937C00809149
:1011D0007A00806480937A0080917A0086FDFCCF4B
:1011E000809178002091790090E0922B08950895E5
:1011F000CF92DF92EF92FF920F931F93CF93DF93E3
:101200006C017A018B01C0E0D0E0CE15DF0581F0E2
:10121000D8016D918D01D601ED91FC910190F08185
:10122000E02DC6011995892B11F02196EECF7E0194
:10123000C701DF91CF911F910F91FF90EF90DF9049
:10124000CF9008950E9428198F929F92AF92BF92DB
:10125000EF92FF920F931F93CF93DF93CDB7DEB73B
:101260002E970FB6F894DEBF0FBECDBF7C01CB0129
:10127000BA01F70182889388A488B5888686978604
:10128000A08AB18A4FB7F8948090EA039090EB035C
:10129000A090EC03B090ED034FBF828A938AA48A9A
:1012A000B58A818C928CA38CB48C80A291A2A2A2CC
:1012B000B3A2A90198010E949113F701618F728F67
:1012C000838F948F0AE112E0198708871A861B869C
:1012D0001C861D861E861A830983208D2B836C83B2
:1012E0007D838E839F83AE01485F5F4FBE016F5F3A
:1012F0007F4FC70184960E94480819870887F70125
:10130000878D8A8780A191A1A2A1B3A18B879C8799
:10131000AD87BE871A830983808D8B83818D928DE3
:10132000A38DB48D8C839D83AE83BF83AE01485F54
:101330005F4FBE016F5F7F4FC7018B960E944808C9
:10134000F70127A130A541A552A566817781808547
:1013500091850E94D3122DEC3CEC4CEC5DE30E9495
:10136000D3124B015C01F701218D328D438D548DD9
:1013700062817381848195810E94D3129B01AC01AB
:10138000C501B4010E9492134B015C01F70126A52F
:1013900037A540A951A962857385848595850E94EA
:1013A000D3122DEC3CEC4CEC5DE30E9475149B01D8
:1013B000AC01C501B4010E9492132E960FB6F894A9
:1013C000DEBF0FBECDBFDF91CF911F910F91FF9078
:1013D000EF90BF90AF909F908F900895CF92DF9243
:1013E000EF92FF920F931F93CF93DF937C01CAE09C
:1013F000D0E0F70182810E94D808C80ED91E21973B
:10140000C1F7FAE0CF16D10418F1CAE0D0E0F70135
:1014100082810E94D808080F191F2197C1F7C801BF
:101420006AE070E00E94061780E090E00E9472126D
:101430002CE934EC40ED5FEB0E94901520E03BE19D
:1014400045E858E40E94D3120E94EE14862F01C092
:1014500080E0DF91CF911F910F91FF90EF90DF908F
:10146000CF9008950F931F93CF93DF93EC01888162
:101470009981009729F02A813B812617370788F444
:101480008B016F5F7F4F0E944318009761F0998333
:1014900088831B830A832C813D81232B11F4FC015B
:1014A000108281E001C080E0DF91CF911F910F9108
:1014B0000895EF92FF920F931F93CF93DF936115DF
:1014C000710511F480E01CC041155105C1F07B018C
:1014D000EC018C819D818A01080F191FB801CE0192
:1014E0000E94320A882371F3288139818C819D8181
:1014F000B701820F931F0E9436191D830C8381E070
:10150000DF91CF911F910F91FF90EF900895CF93AE
:10151000DF93EC0188819981009711F00E94BA173E
:10152000198218821D821C821B821A82DF91CF9140
:101530000895CF93DF93EC01FB01448155816081D5
:1015400071810E94590A811103C0CE010E94870A4D
:10155000CE01DF91CF910895CF92DF92EF92FF926B
:101560000F931F93CF93DF93CDB7DEB7A1970FB63D
:10157000F894DEBF0FBECDBF7C01CB01BA01F701ED
:101580001182108213821282158214828E010F5FE3
:101590001F4F22E044E00E94FE0F6C01009771F0A3
:1015A000FC0101900020E9F731978F01081B190B0E
:1015B000B801C7010E94320A811104C0C7010E940C
:1015C000870A08C0F70115830483B60180819181E1
:1015D0000E943619A1960FB6F894DEBF0FBECDBF9C
:1015E000DF91CF911F910F91FF90EF90DF90CF90FF
:1015F0000895CF93DF93EC016115710561F0FB0154
:1016000001900020E9F73197AF01461B570B0E946C
:10161000590A811103C0CE010E94870ACE01DF91D1
:10162000CF910895362F90E0FC01E655FB4F449191
:10163000FC01EC59FB4F2491FC01E25EFB4F9491BD
:10164000992309F46CC0442309F455C050E0FA0111
:101650003197E231F10508F04EC08827EE58FF4F70
:101660008F4F0C941A17809180008F7707C080915C
:1016700080008F7D03C080918000877F80938000F1
:101680003AC084B58F7702C084B58F7D84BD33C0E6
:101690008091B0008F7703C08091B0008F7D8093E0
:1016A000B00029C0809190008F7707C08091900092
:1016B0008F7D03C080919000877F809390001BC036
:1016C0008091A0008F7707C08091A0008F7D03C01C
:1016D0008091A000877F8093A0000DC080912001A1
:1016E0008F7707C0809120018F7D03C080912001FA
:1016F000877F80932001E92FF0E0EE0FFF1FEC5F62
:10170000FB4FA591B4919FB7F894311104C08C910F
:101710002095282302C0EC912E2B2C939FBF089577
:10172000CF93DF9390E0FC01EC59FB4F2491FC0137
:10173000E25EFB4F8491882361F190E0880F991F4E
:10174000FC01E651FC4FC591D491FC01EC5FFB4FCD
:10175000A591B491611109C09FB7F8948881209533
:1017600082238883EC912E230BC0623061F49FB7F3
:10177000F8948881322F309583238883EC912E2B27
:101780002C939FBF06C08FB7F894E8812E2B288337
:101790008FBFDF91CF9108951F93CF93DF93182FC1
:1017A000EB0161E00E94900B209711F460E004C00F
:1017B000CF3FD10539F461E0812FDF91CF911F91A7
:1017C0000C94120BE12FF0E0E655FB4FE4918E2FC5
:1017D00090E0FC013197E231F10508F09DC08827C7
:1017E000EC57FF4F8F4F0C941A1784B5806884BD57
:1017F000C7BD97C084B5806284BDC8BD92C08091CA
:101800008000806880938000D0938900C093880016
:1018100088C080918000806280938000D0938B008C
:10182000C0938A007EC08091800088608093800091
:10183000D0938D00C0938C0074C08091B0008068FC
:101840008093B000C093B3006CC08091B000806200
:101850008093B000C093B40064C080919000806811
:1018600080939000D0939900C09398005AC08091C3
:101870009000806280939000D0939B00C0939A0068
:1018800050C080919000886080939000D0939D001C
:10189000C0939C0046C08091A00080688093A00007
:1018A0008091A0008F7B8093A000D093A900C0936B
:1018B000A80037C08091A00080628093A000D093E0
:1018C000AB00C093AA002DC08091A00088608093D7
:1018D000A000D093AD00C093AC0023C08091200144
:1018E000806880932001D0932901C093280119C0FA
:1018F00080912001806280932001D0932B01C093BE
:101900002A010FC080912001886080932001D0932C
:101910002D01C0932C0105C0C038D1050CF04BCF70
:1019200045CFDF91CF911F9108953FB7F8948091F3
:10193000E6039091E703A091E803B091E90326B58F
:10194000A89B05C02F3F19F00196A11DB11D3FBFF7
:10195000BA2FA92F982F8827820F911DA11DB11D85
:10196000BC01CD0142E0660F771F881F991F4A9581
:10197000D1F708951F920F920FB60F9211242F9353
:101980003F938F939F93AF93BF938091EA0390917E
:10199000EB03A091EC03B091ED033091E50323E05C
:1019A000230F2D3720F40196A11DB11D05C026E897
:1019B000230F0296A11DB11D2093E5038093EA0336
:1019C0009093EB03A093EC03B093ED038091E603B7
:1019D0009091E703A091E803B091E9030196A11D5E
:1019E000B11D8093E6039093E703A093E803B093BF
:1019F000E903BF91AF919F918F913F912F910F90EC
:101A00000FBE0F901F9018951F920F920FB60F9256
:101A100011240BB60F922F933F934F935F936F93C5
:101A20007F938F939F93AF93BF93EF93FF93E09137
:101A30000E02F0910F021995FF91EF91BF91AF91B6
:101A40009F918F917F916F915F914F913F912F91D6
:101A50000F900BBE0F900FBE0F901F9018951F9206
:101A60000F920FB60F9211240BB60F922F933F9344
:101A70004F935F936F937F938F939F93AF93BF9396
:101A8000EF93FF93E0910C02F0910D021995FF91F5
:101A9000EF91BF91AF919F918F917F916F915F91E6
:101AA0004F913F912F910F900BBE0F900FBE0F9053
:101AB0001F9018951F920F920FB60F9211240BB61C
:101AC0000F922F933F934F935F936F937F938F93D7
:101AD0009F93AF93BF93EF93FF93E0910202F09136
:101AE00003021995FF91EF91BF91AF919F918F9153
:101AF0007F916F915F914F913F912F910F900BBE0E
:101B00000F900FBE0F901F9018951F920F920FB657
:101B10000F9211240BB60F922F933F934F935F9325
:101B20006F937F938F939F93AF93BF93EF93FF93A5
:101B3000E0910002F09101021995FF91EF91BF91A0
:101B4000AF919F918F917F916F915F914F913F9155
:101B50002F910F900BBE0F900FBE0F901F901895F6
:101B60001F920F920FB60F9211240BB60F922F9364
:101B70003F934F935F936F937F938F939F93AF9315
:101B8000BF93EF93FF93E0910A02F0910B02199536
:101B9000FF91EF91BF91AF919F918F917F916F9145
:101BA0005F914F913F912F910F900BBE0F900FBE01
:101BB0000F901F9018951F920F920FB60F9211243D
:101BC0000BB60F922F933F934F935F936F937F9337
:101BD0008F939F93AF93BF93EF93FF93E09108028E
:101BE000F09109021995FF91EF91BF91AF919F91EB
:101BF0008F917F916F915F914F913F912F910F90B6
:101C00000BBE0F900FBE0F901F9018951F920F9252
:101C10000FB60F9211240BB60F922F933F934F9351
:101C20005F936F937F938F939F93AF93BF93EF9344
:101C3000FF93E0910602F09107021995FF91EF9151
:101C4000BF91AF919F918F917F916F915F914F91D4
:101C50003F912F910F900BBE0F900FBE0F901F90D2
:101C600018951F920F920FB60F9211240BB60F9278
:101C70002F933F934F935F936F937F938F939F9394
:101C8000AF93BF93EF93FF93E0910402F0910502AD
:101C90001995FF91EF91BF91AF919F918F917F9196
:101CA0006F915F914F913F912F910F900BBE0F90CD
:101CB0000FBE0F901F901895789484B5826084BDF4
:101CC00084B5816084BD85B5826085BD85B5816040
:101CD00085BD80916E00816080936E0010928100BE
:101CE0008091810082608093810080918100816079
:101CF000809381008091800081608093800080913A
:101D0000B10084608093B1008091B00081608093C5
:101D1000B000809191008260809391008091910049
:101D20008160809391008091900081608093900009
:101D30008091A10082608093A1008091A1008160C8
:101D40008093A1008091A00081608093A000809189
:101D50002101826080932101809121018160809323
:101D600021018091200181608093200180917A007F
:101D7000846080937A0080917A00826080937A00F8
:101D800080917A00816080937A0080917A008068E7
:101D900080937A001092C100F89410924D03109233
:101DA0004E0310924F031092500310924203109270
:101DB000430310924403109245037894F8941092D0
:101DC000390310923A0310923B0310923C03109295
:101DD0002E0310922F031092300310923103789447
:101DE000E0919D02F0919E0282E08083E091990251
:101DF000F0919A021082E0919B02F0919C0280E1A6
:101E000080831092A502E091A102F091A20286E0E7
:101E10008083E0919F02F091A002808180618083A5
:101E2000E0919F02F091A002808188608083E09120
:101E30009F02F091A002808180688083E0919F02E0
:101E4000F091A00280818F7D80830E94950C4B01D0
:101E50005C0180EDC82E87E0D82EE12CF12C0E9489
:101E6000950CDC01CB0188199909AA09BB09883EA8
:101E70009340A105B10598F321E0C21AD108E10809
:101E8000F10888EE880E83E0981EA11CB11CC114D5
:101E9000D104E104F10419F761E085E00E94900BA0
:101EA00061E086E00E94900B1092200180E1809317
:101EB000210183E080938A0284ED90E3909389026C
:101EC00080938802909327018093260180912101BD
:101ED000887F80932101809121018360809321017B
:101EE00081E494E090938C0280938B0281E0809354
:101EF000730078949091210180918A02892B8093BC
:101F000021010E948903FDCF87E793E00E944408E6
:101F100089EA93E00C944408EDE8F2E0138212821F
:101F200088EE93E0A0E0B0E084839583A683B78336
:101F30008AE292E09183808385EC90E095878487A4
:101F400084EC90E09787868780EC90E0918B808B83
:101F500081EC90E0938B828B82EC90E0958B848B6C
:101F600086EC90E0978B868B118E128E138E148EDA
:101F700084E492E09093DC038093DB0389EA93E0AE
:101F80000E947C0887E793E00E947C08E7E6F3E084
:101F90001082118212821382148215821682178295
:101FA000EBE5F3E010821182128213821482158213
:101FB000168217821086118612861386E8E5F3E0F2
:101FC0008CE392E09183808328E32283E5E5F3E0CC
:101FD000918380832AE32283E2E5F3E09183808387
:101FE00089E3828342E163E18EE393E00E94E107AB
:101FF00043E062E08AE293E00C94E107EF920F93F2
:102000001F93CF93DF93E80147FD02C034E001C086
:1020100034E1042E000C550B57FF03C05195419538
:102020005109E32E022F242FAE010E941E10CE0173
:10203000DF91CF911F910F91EF9008958F929F9212
:10204000AF92BF92CF92DF92EF92FF920F931F93C6
:10205000CF93DF93CDB7DEB729970FB6F894DEBFE5
:102060000FBECDBF6A01122FB02E2BE3201720F038
:10207000FF24F394F00E02C02CE3F22E0F2D27E084
:10208000AE014F5F5F4F0E949511BC014981842FC3
:102090008970813031F0E1FC06C0E0FE06C090E2BC
:1020A00005C09DE203C09BE201C090E05E2D50712F
:1020B00043FF3CC0911102C083E001C084E081175E
:1020C00018F4212F281B01C020E051110BC0F6018C
:1020D000822F30E2882319F031938150FBCFC20E5A
:1020E000D11C20E0992329F0D6019C93F60131966A
:1020F0006F01C6010396E2FE0AC03EE4D6013C939E
:1021000041E411964C93119712963C9306C03EE61B
:10211000F601308341E641833283FC01322F40E2F5
:10212000332309F442C041933150FACF42FF44C0F7
:10213000911102C083E001C084E0811718F4212FBF
:10214000281B01C020E051110BC0F601822F30E2A4
:10215000882319F031938150FBCFC20ED11C20E0AF
:10216000992329F0D6019C93F60131966F01C6019F
:102170000396E2FE0BC039E4D6013C933EE411968F
:102180003C93119736E412963C9307C039E6F6016A
:1021900030833EE6318336E63283FC01322F40E263
:1021A000332319F041933150FBCFFC01E20FF11DB5
:1021B00010828EEF9FEFA6C021E030E0911102C0A7
:1021C00020E030E0161617061CF4FB01319602C021
:1021D000E1E0F0E02E0F3F1FBB2021F0EB2DF0E0FF
:1021E000319602C0E0E0F0E02E0F3F1FE12FF0E05B
:1021F0002E173F071CF4121B212F01C020E08E2D4B
:10220000887159F4F601822F30E2882319F0319356
:102210008150FBCFC20ED11C20E0992329F0D601BA
:102220009C93F60131966F0151110BC0F601822F7C
:1022300090E3882319F091938150FBCFC20ED11CFB
:1022400020E00F2D060F9A81342F307144FF03C018
:10225000913309F40150101624F4093018F008E005
:1022600001C001E0AB0177FF02C040E050E0FB019C
:10227000E41BF50BA1E0B0E0AC0FBD1FEA0FFB1FA4
:102280008EE2A82E4B01801A91080B2D10E01195BB
:10229000019511094F3FBFEF5B0721F4D601AC92C6
:1022A00011966D01641775072CF08416950614F4C9
:1022B000818101C080E3415051093196D6011196C8
:1022C0007D014017510724F0D6018C936701E2CFBE
:1022D0006417750739F4963320F4953319F43111E6
:1022E00001C081E3F6018083F701822F90E2882309
:1022F00019F091938150FBCFF701E20FF11D10828D
:1023000080E090E029960FB6F894DEBF0FBECDBFF7
:10231000DF91CF911F910F91FF90EF90DF90CF90C1
:10232000BF90AF909F908F900895283008F027E0DD
:102330003327DA01990F311D87FD91600096610501
:10234000710539F432602E5F3D9330E32A95E1F751
:1023500008959F3F30F080387105610509F03C5FBA
:102360003C5F3D93913008F08068911DDF93CF93DF
:102370001F930F93FF92EF92192F987F9695E92F55
:1023800096959695E90FFF27E05DFC4F9927332737
:10239000EE24FF24A701E70105900894079428F490
:1023A000360FE71EF81E491F511D660F771F881F45
:1023B000991F0694A1F70590079428F4E70EF81EDC
:1023C000491F561FC11D770F881F991F661F06944E
:1023D000A1F70590079428F4F80E491F561FC71F50
:1023E000D11D880F991F661F771F0694A1F70590CE
:1023F000079420F4490F561FC71FD81F990F661F57
:10240000771F881F0694A9F784911095177041F0E3
:10241000D695C79557954795F794E7941A95C1F7C0
:10242000E6EDF2E0689415901591359165919591DE
:1024300005907FE27395E118F10A430B560BC90B27
:10244000D009C0F7E10CF11E431F561FC91FD01D54
:102450007EF4703311F48A95E6CFE894015030F0A1
:10246000080F0AF40027021708F4202F2395022FE3
:102470007A3328F079E37D932A95E9F710C07D93AC
:102480002A9589F606949795679537951795179429
:10249000E118F10A430B560BC90BD00998F02395AC
:1024A0007E9173957A3308F070E37C932013B8F72C
:1024B0007E9170617D9330F0839571E37D9370E33D
:1024C0002A95E1F71124EF90FF900F911F91CF9182
:1024D000DF91992787FD909508950E94AF1208F427
:1024E00081E00895E89409C097FB3EF490958095AB
:1024F000709561957F4F8F4F9F4F9923A9F0F92FCA
:1025000096E9BB279395F695879577956795B79547
:10251000F111F8CFFAF4BB0F11F460FF1BC06F5F2D
:102520007F4F8F4F9F4F16C0882311F096E911C03F
:10253000772321F09EE8872F762F05C0662371F060
:1025400096E8862F70E060E02AF09A95660F771F74
:10255000881FDAF7880F9695879597F90895990F50
:102560000008550FAA0BE0E8FEEF16161706E8075D
:10257000F907C0F012161306E407F50798F0621B7E
:10258000730B840B950B39F40A2661F0232B242B53
:10259000252B21F408950A2609F4A140A6958FEF72
:1025A000811D811D08950E94E6120C9457130E940C
:1025B000491338F00E94501320F0952311F00C9429
:1025C00040130C94461311240C948B130E9468132F
:1025D00070F3959FC1F3950F50E0551F629FF00176
:1025E000729FBB27F00DB11D639FAA27F00DB11D8F
:1025F000AA1F649F6627B00DA11D661F829F222718
:10260000B00DA11D621F739FB00DA11D621F839F9E
:10261000A00D611D221F749F3327A00D611D231F74
:10262000849F600D211D822F762F6A2F11249F57C2
:1026300050409AF0F1F088234AF0EE0FFF1FBB1FC5
:10264000661F771F881F91505040A9F79E3F510584
:1026500080F00C9440130C948B135F3FE4F3983E8E
:10266000D4F3869577956795B795F795E7959F5F2E
:10267000C1F7FE2B880F911D9695879597F90895C0
:1026800097F99F6780E870E060E008959FEF80EC25
:10269000089500240A9416161706180609060895C8
:1026A00000240A9412161306140605060895092E2E
:1026B0000394000C11F4882352F0BB0F40F4BF2B9D
:1026C00011F460FF04C06F5F7F4F8F4F9F4F0895DD
:1026D00057FD9058440F551F59F05F3F71F04795D3
:1026E000880F97FB991F61F09F3F79F087950895B8
:1026F000121613061406551FF2CF4695F1DF08C0D7
:10270000161617061806991FF1CF869571056105F3
:1027100008940895E894BB2766277727CB0197F99B
:1027200008955058BB27AA270E94A9130C94571349
:102730000E94491338F00E94501320F039F49F3F53
:1027400019F426F40C9446130EF4E095E7FB0C9470
:102750004013E92F0E94681358F3BA1762077307F2
:102760008407950720F079F4A6F50C948A130EF4EB
:10277000E0950B2EBA2FA02D0B01B90190010C0191
:10278000CA01A0011124FF27591B99F0593F50F4A9
:10279000503E68F11A16F040A22F232F342F442701
:1027A000585FF3CF469537952795A795F0405395F9
:1027B000C9F77EF41F16BA0B620B730B840BBAF0C9
:1027C0009150A1F0FF0FBB1F661F771F881FC2F734
:1027D0000EC0BA0F621F731F841F48F48795779548
:1027E0006795B795F7959E3F08F0B0CF9395880F02
:1027F00008F09927EE0F9795879508950E94491341
:1028000060F080E891E009F49EEF0E94501328F0F8
:1028100040E851E071F45EEF0CC00C9446130C9448
:102820008A13E92FE0780E94681340F3092E052AE5
:10283000B1F3261737074807590738F00E2E07F867
:10284000E02569F0E025E0640AC0EF6307F8009432
:1028500007FADB01B9019D01DC01CA01AD01EF936B
:102860000E948C140E9457130E9441145F915523BB
:1028700039F02BED3FE049E450FD49EC0C94921304
:102880000895DF93DD27B92FBF7740E85FE3161681
:10289000170648075B0718F4D92F0E9488159F93E5
:1028A0008F937F936F930E94E815ECE2F1E00E9412
:1028B0001D150E9457132F913F914F915F910E94D8
:1028C000E612DD2351F09058A2EA2AED3FE049ECF0
:1028D0005FE3D0785D270E94A913DF910C94571312
:1028E0000E944615E3950C946F150E9489140C9470
:1028F00057130E94501358F00E94491340F029F4D6
:102900005F3F29F00C94401351110C948B130C94DD
:1029100046130E94681368F39923B1F3552391F38A
:10292000951B550BBB27AA2762177307840738F03E
:102930009F5F5F4F220F331F441FAA1FA9F335D09B
:102940000E2E3AF0E0E832D091505040E695001C4F
:10295000CAF72BD0FE2F29D0660F771F881FBB1F09
:10296000261737074807AB07B0E809F0BB0B802DE7
:10297000BF01FF2793585F4F3AF09E3F510578F013
:102980000C9440130C948B135F3FE4F3983ED4F304
:10299000869577956795B795F7959F5FC9F7880FE7
:1029A000911D9695879597F90895E1E0660F771F39
:1029B000881FBB1F621773078407BA0720F0621BCA
:1029C000730B840BBA0BEE1F88F7E09508950E94F5
:1029D000EE146894B1110C948B1308950E94701337
:1029E00088F09F5798F0B92F9927B751B0F0E1F0D0
:1029F000660F771F881F991F1AF0BA95C9F714C080
:102A0000B13091F00E948A13B1E008950C948A13BA
:102A1000672F782F8827B85F39F0B93FCCF38695B8
:102A200077956795B395D9F73EF490958095709515
:102A300061957F4F8F4F9F4F0895DF93CF931F93E3
:102A40000F93FF92EF92DF927B018C01689406C096
:102A5000DA2EEF010E94E612FE01E894A59125917D
:102A6000359145915591A6F3EF010E94A913FE01FE
:102A70009701A801DA9469F7DF90EF90FF900F912A
:102A80001F91CF91DF9108950C9446130E9470130B
:102A9000D8F3E894E0E0BB279F57F0F02AED3FE041
:102AA00049EC06C0EE0FBB0F661F771F881F28F08A
:102AB000B23A62077307840728F0B25A620B730BAD
:102AC000840BE3959A9572F7803830F49A95BB0F92
:102AD000661F771F881FD2F790480C942816EF9333
:102AE000E0FF07C0A2EA2AED3FE049EC5FEB0E945D
:102AF000A9130E9457130F90039401FC9058E9E525
:102B0000F1E00C9434160E94AF1208F48FEF089590
:102B10009B01AC0160E070E080E89FE30C947514C9
:102B2000FA01EE0FFF1F309621053105A1F1611565
:102B3000710561F48038BFE39B0749F168949038D0
:102B4000810561F08038BFEF9B0741F099234AF57A
:102B5000FF3FE1053105210519F1E8940894E79557
:102B6000D901AA2329F4AB2FBE2FF85FD0F310C0F0
:102B7000FF5F70F4A695E0F7F73950F019F0FF3ACF
:102B800038F49F779F930DD00F9007FC90580895CD
:102B900046F00C94461360E070E080E89FE30895EF
:102BA0004FE79F775F934F933F932F930E948A162F
:102BB0002F913F914F915F910E94D3120C94F41585
:102BC0009F930E9446150F9007FCEE5F0C946F15C3
:102BD0009B01AC010C94D31229F416F00C94401311
:102BE0000C948A130C9446130E947013A8F3963821
:102BF000A0F707F80F92E8942BE33AEA48EB5FE777
:102C00000E94E9120F920F920F924DB75EB70F928A
:102C10000E94D216E7E7F1E00E941D154F915F91E7
:102C2000EF91FF91E595EE1FFF1F49F0FE57E06819
:102C30004427EE0F441FFA95E1F74195550B0E948A
:102C40004C160F9007FE0C94881508959F3F31F0A5
:102C5000915020F4879577956795B795880F911DCA
:102C60009695879597F908959F938F937F936F9388
:102C7000FF93EF939B01AC010E94D312EF91FF9160
:102C80000E941D152F913F914F915F910C94D3128B
:102C90000C9440130C9426160E947013D8F39923B9
:102CA000C9F3940F511DA3F39150504094F059F083
:102CB000882332F0660F771F881F91505040C1F76C
:102CC0009E3F51052CF7880F911D9695879597F992
:102CD00008955F3FACF0983E9CF0BB2786957795B2
:102CE0006795B79508F4B1609395C1F7BB0F58F796
:102CF00011F460FFE8CF6F5F7F4F8F4F9F4FE3CF9F
:102D00000C948B1316F00C9426160C9446136894AE
:102D10000C9440130E947013A8F39923C1F3AEF3EF
:102D2000DF93CF931F930F93FF92C92FDD27882343
:102D30002AF02197660F771F881FDAF720E030E02E
:102D400040E85FEB9FE3883920F0803E38F0219621
:102D50008F770E949213EFE9F1E004C00E94921372
:102D6000ECECF1E00E941D158B01BE01EC01FB2E85
:102D70006F5771097595771F880B990B0E94741214
:102D800028E132E741E35FE30E94E612AF2D9801AC
:102D9000AE01FF900F911F91CF91DF910E94A91377
:102DA0000C945713FA01DC01AA0FBB1F9B01AC0165
:102DB000BF5728F4222733274427507820C0B75123
:102DC00090F4AB2F0024469537952795011CA395C9
:102DD000D2F3002071F0220F331F441FB395DAF3B2
:102DE0000ED00C94911361307105A0E88A07B946A2
:102DF00030F49B01AC0166277727882790783096BE
:102E000021F020833183428353830895AA1BBB1B87
:102E100051E107C0AA1FBB1FA617B70710F0A61BDA
:102E2000B70B881F991F5A95A9F780959095BC01FB
:102E3000CD010895EE0FFF1F881F8BBF0790F691FD
:102E4000E02D19940F931F93CF93DF938230910558
:102E500010F482E090E0E091F003F091F10320E0C3
:102E600030E0A0E0B0E0309719F14081518102815B
:102E7000138148175907C8F08417950769F410970C
:102E800031F012960C93129713961C9327C000935F
:102E9000F0031093F10322C02115310519F04217F8
:102EA000530718F49A01BD01EF01DF01F801DBCFF0
:102EB00021153105F9F0281B390B2430310580F438
:102EC0008A819B816115710521F0FB0193838283C7
:102ED00004C09093F1038093F003FE01329644C046
:102EE000FE01E20FF31F8193919322503109398340
:102EF00028833AC02091EE033091EF03232B41F455
:102F000020911202309113023093EF032093EE03CD
:102F100020911002309111022115310541F42DB795
:102F20003EB74091140250911502241B350BE091DD
:102F3000EE03F091EF03E217F307A0F42E1B3F0B13
:102F40002817390778F0AC014E5F5F4F241735071B
:102F500048F04E0F5F1F5093EF034093EE038193B1
:102F6000919302C0E0E0F0E0CF01DF91CF911F919B
:102F70000F910895CF93DF93009709F481C0FC016E
:102F8000329713821282A091F003B091F10310974F
:102F900081F420813181820F931F2091EE033091C3
:102FA000EF032817390751F5F093EF03E093EE0391
:102FB00067C0ED0120E030E0CE17DF0740F44A8122
:102FC0005B819E0141155105F1F0EA01F5CFD383F4
:102FD000C28340815181840F951FC817D90759F4C6
:102FE00088819981840F951F0296918380838A81BD
:102FF0009B81938382832115310529F4F093F1039A
:10300000E093F0033DC0E901FB83EA8349915991C4
:10301000C40FD51FEC17FD0761F480819181840FE7
:10302000951F0296E90199838883828193819B830E
:103030008A83E0E0F0E012968D919C9113970097BF
:1030400019F0FD01DC01F7CF8D919C9111979D0145
:103050002E5F3F4F820F931F2091EE033091EF03BD
:103060002817390769F4309729F41092F103109268
:10307000F00302C013821282B093EF03A093EE0319
:10308000DF91CF9108956F927F928F929F92AF922E
:10309000BF92CF92DF92EF92FF920F931F93CF9345
:1030A000DF93009789F4CB01DF91CF911F910F91AE
:1030B000FF90EF90DF90CF90BF90AF909F908F9058
:1030C0007F906F900C942217FC01E60FF71F9C0174
:1030D00022503109E217F30708F4A9C0EC01D90125
:1030E0000D911C91119706171707B0F005301105C7
:1030F00008F49BC0C80104978617970708F495C089
:1031000002501109061B170B019311936D937C93C9
:10311000CF010E94BA1789C05B01A01AB10A4C0105
:10312000800E911EA091F003B091F103612C712CDF
:10313000E12CF12C109709F446C08D919C911197C8
:10314000A815B905B1F56C0142E0C40ED11CCA1432
:10315000DB0478F14C018A189B08640142E0C40E3C
:10316000D11C1296BC9012971396AC91B5E0CB1679
:10317000D10440F0B282A38391828082D9016D9301
:103180007C9309C00E5F1F4F800F911FF90191833F
:103190008083EB2DFA2FE114F10431F0D70113965F
:1031A000FC93EE93129741C0F093F103E093F00388
:1031B0003CC06816790608F43C017D0112960D901A
:1031C000BC91A02DB7CF8091EE039091EF038816AC
:1031D0009906E1F466167706C8F480911002909182
:1031E0001102009741F48DB79EB74091140250919F
:1031F0001502841B950BE817F907C8F4F093EF0349
:10320000E093EE03F901718360830FC0CB010E944C
:1032100022177C01009759F0A801BE010E942D19C8
:10322000CE010E94BA17C70104C0CE0102C080E0DF
:1032300090E0DF91CF911F910F91FF90EF90DF9081
:10324000CF90BF90AF909F908F907F906F90089598
:1032500081E090E0F8940C943D19FB01DC0102C080
:1032600001900D9241505040D8F70895FB01DC01C8
:1032700001900D920020E1F7089512E0C9E7D2E035
:1032800000E006C0802FFE010E941A172196011D42
:0E329000CA37D10780E00807A9F7F894FFCFEE
:10329E00F708F708F708F708F708F708F708F70828
:1032AE000000F20380000000000047083B0400000D
:1032BE00000044084508000000001A03F808B10297
:1032CE006703E202C002D40200000000E0073D04E2
:1032DE0000000000DF073F04583A0020593A002052
:0632EE00543A000D0A0035
:00000001FF
