:100000000C9435000C945D000C945D000C945D0024
:100010000C945D000C945D000C945D000C945D00EC
:100020000C945D000C945D000C945D000C945D00DC
:100030000C945D000C945D000C945D000C945D00CC
:100040000C9474010C945D000C94E4010C94BE01BA
:100050000C945D000C945D000C945D000C945D00AC
:100060000C945D000C945D00270211241FBECFEF9D
:10007000D8E0DEBFCDBF11E0A0E0B1E0EEE9F7E0EF
:1000800002C005900D92A235B107D9F721E0A2E593
:10009000B1E001C01D92AF3FB207E1F710E0C5E348
:1000A000D0E004C02197FE010E94A102C433D10711
:1000B000C9F70E945B020C94CD030C940000FC0174
:1000C000538D448D252F30E0842F90E0821B930BBD
:1000D000541710F0CF96089501970895FC01918D63
:1000E000828D981761F0828DDF01A80FB11D5D969A
:1000F0008C91928D9F5F9F73928F90E008958FEF08
:100100009FEF0895FC01918D828D981731F0828DBB
:10011000E80FF11D858D90E008958FEF9FEF089512
:10012000FC01918D228D892F90E0805C9F4F821B76
:1001300091098F7399270895FC01848DDF01A80F21
:10014000B11DA35ABF4F2C91848D90E001968F73FF
:100150009927848FA689B7892C93A089B1898C911E
:10016000837080648C93938D848D981306C002886D
:10017000F389E02D80818F7D80830895EF92FF9237
:100180000F931F93CF93DF93EC0181E0888F9B8DBA
:100190008C8D981305C0E889F989808185FD26C07A
:1001A000F62E0B8D10E00F5F1F4F0F731127E02EFF
:1001B0008C8DE8120CC00FB607FCFACFE889F989DC
:1001C000808185FFF5CFCE010E949C00F1CF8B8D01
:1001D000FE01E80FF11DE35AFF4FF0829FB7F8943C
:1001E0000B8FEA89FB89808180620AC09FB7F894EF
:1001F000EE89FF896083E889F98980818370806452
:1002000080839FBF81E090E0DF91CF911F910F919C
:10021000FF90EF900895CF93DF93EC01888D8823B2
:10022000C9F0EA89FB89808185FD05C0A889B98963
:100230008C9186FD0FC00FB607FCF5CF808185FF3E
:10024000F2CFA889B9898C9185FFEDCFCE010E94AC
:100250009C00E7CFDF91CF9108958BE591E00E945C
:10026000900021E0892B09F420E0822F089580E09E
:1002700090E0892B29F00E942D0181110C9400003F
:100280000895CF92DF92EF92FF920F931F93CF9337
:10029000DF936C017A018B01C0E0D0E0CE15DF0561
:1002A00081F0D8016D918D01D601ED91FC91019005
:1002B000F081E02DC6010995892B11F02196EECF32
:1002C0007E01C701DF91CF911F910F91FF90EF90B9
:1002D000DF90CF900895089580E090E0089508950C
:1002E0000E94C8030C943F031F920F920FB60F9207
:1002F00011242F933F938F939F93AF93BF9380913C
:10030000570190915801A0915901B0915A01309133
:10031000560123E0230F2D3720F40196A11DB11DB6
:1003200005C026E8230F0296A11DB11D209356019A
:100330008093570190935801A0935901B0935A01AB
:100340008091520190915301A0915401B0915501B7
:100350000196A11DB11D8093520190935301A0936A
:100360005401B0935501BF91AF919F918F913F91EF
:100370002F910F900FBE0F901F9018951F920F9204
:100380000FB60F9211242F933F934F935F936F9368
:100390007F938F939F93AF93BF93EF93FF938BE5DF
:1003A00091E00E949C00FF91EF91BF91AF919F91CE
:1003B0008F917F916F915F914F913F912F910F900E
:1003C0000FBE0F901F9018951F920F920FB60F92AD
:1003D00011242F938F939F93EF93FF93E0916B01E1
:1003E000F0916C018081E0917101F091720182FDC8
:1003F00012C09081809174018F5F8F73209175017D
:10040000821751F0E0917401F0E0E55AFE4F958FAC
:100410008093740101C08081FF91EF919F918F9132
:100420002F910F900FBE0F901F9018954EE250E045
:1004300060E271E08BE591E00E94410142E050E012
:100440006FE471E08BE591E00E944101FFCFEBE5A5
:10045000F1E01382128288EE93E0A0E0B0E08483A2
:100460009583A683B7838AE091E09183808385ECAE
:1004700090E09587848784EC90E09787868780EC6E
:1004800090E0918B808B81EC90E0938B828B82EC5F
:1004900090E0958B848B86EC90E0978B868B118E09
:1004A000128E138E148E8CE191E09093F90180935B
:1004B000F8010E941602789484B5826084BD84B5E8
:1004C000816084BD85B5826085BD85B5816085BD4F
:1004D00080916E00816080936E0010928100809107
:1004E000810082608093810080918100816080938F
:1004F0008100809180008160809380008091B100B4
:1005000084608093B1008091B00081608093B000DE
:1005100080917A00846080937A0080917A00826072
:1005200080937A0080917A00816080937A00809134
:100530007A00806880937A001092C1000E9437018F
:10054000FDCFEE0FFF1F0590F491E02D09940F935E
:100550001F93CF93DF938230910510F482E090E0F7
:10056000E091FD01F091FE0120E030E0A0E0B0E07C
:10057000309719F140815181028113814817590741
:10058000C8F08417950769F4109731F012960C9310
:10059000129713961C9327C00093FD011093FE0140
:1005A00022C02115310519F04217530718F49A019A
:1005B000BD01EF01DF01F801DBCF21153105F9F0B5
:1005C000281B390B2430310580F48A819B81611509
:1005D000710521F0FB019383828304C09093FE0197
:1005E0008093FD01FE01329644C0FE01E20FF31F2D
:1005F0008193919322503109398328833AC0209105
:10060000FB013091FC01232B41F420910201309138
:1006100003013093FC012093FB01209100013091F4
:1006200001012115310541F42DB73EB74091040178
:1006300050910501241B350BE091FB01F091FC0169
:10064000E217F307A0F42E1B3F0B2817390778F0A9
:10065000AC014E5F5F4F2417350748F04E0F5F1F08
:100660005093FC014093FB018193919302C0E0E021
:10067000F0E0CF01DF91CF911F910F910895CF93BB
:10068000DF93009709F481C0FC0132971382128234
:10069000A091FD01B091FE01109781F4208131817C
:1006A000820F931F2091FB013091FC01281739071D
:1006B00051F5F093FC01E093FB0167C0ED0120E0F0
:1006C00030E0CE17DF0740F44A815B819E0141157F
:1006D0005105F1F0EA01F5CFD383C2834081518106
:1006E000840F951FC817D90759F488819981840F01
:1006F000951F0296918380838A819B819383828355
:100700002115310529F4F093FE01E093FD013DC070
:10071000E901FB83EA8349915991C40FD51FEC1776
:10072000FD0761F480819181840F951F0296E90194
:1007300099838883828193819B838A83E0E0F0E0C0
:1007400012968D919C911397009719F0FD01DC0191
:10075000F7CF8D919C9111979D012E5F3F4F820F96
:10076000931F2091FB013091FC012817390769F490
:10077000309729F41092FE011092FD0102C01382FD
:100780001282B093FC01A093FB01DF91CF910895F9
:0E07900081E090E0F8940C94CD03F894FFCF34
:10079E000000FF01800000000000BE0041015F006C
:1007AE000B0190006E008200000000006F017201CC
:1007BE0057726F6E6720706F727420696E2052616F
:1007CE006E676553656E736F72206F626A656374D0
:1007DE00202D3E207768696C652831297B7D000DC0
:0207EE000A00FF
:00000001FF
