:100000000C9402010C9457040C942C040C940104DD
:100010000C94D6030C94AB030C9480030C945503FE
:100020000C942A030C9433010C9433010C94330187
:100030000C9433010C9433010C9433010C94330170
:100040000C9433010C9433010C9433010C94330160
:100050000C9433010C9433010C9433010C94E002A2
:100060000C9433010C94AC040C9482040C94330172
:100070000C9433010C9433010C9433010C94330130
:100080000C9433010C9433010C9433010C94330120
:100090000C9433010C9433010C9433010C94330110
:1000A0000C9433010C9433010C9433010C94330100
:1000B0000C9433010C9433010C9433010C943301F0
:1000C0000C9433010C9433010C9433010C943301E0
:1000D0000C9433010C9433010C9433010C943301D0
:1000E0000C9433010C94F2050C9458010C946601A5
:1000F0000C94D6020C94B8020C94D0020C944702D3
:100100000C94DE020C9444010C9494010C94C402EF
:100110000C9446020C94CA020C9475020C94BE0214
:100120000C9435010C94E10100002000230026000E
:1001300029002C002F0032000001000003010601FD
:10014000090100002200250028002B002E003100AC
:10015000340002010000050108010B01000021002C
:10016000240027002A002D00300033000101000088
:10017000040107010A010505050507050808080827
:10018000020202020A0A080804040404010101012F
:10019000010101010303030303030303040707072A
:1001A0000C0C0C0C0C0C0C0C0202020206060606CF
:1001B000060606060B0B0B0B0B0B0B0B010210209C
:1001C000200808102040102040800201020108048D
:1001D0000201010204081020408080402010080421
:1001E000020180040201804020100804020108047A
:1001F00002010102040810204080010204081020BE
:100200004080F20511241FBECFEFD1E2DEBFCDBF8B
:1002100000E00CBF12E0A0E0B2E0E2E9FFE000E0A5
:100220000BBF02C007900D92A236B107D9F723E0A9
:10023000A2E6B2E001C01D92AB31B207E1F711E0D6
:10024000C2E0D1E000E006C021970109802FFE0145
:100250000E949906C130D10780E00807A9F70E94E3
:1002600026060C94C7070C940000FC01538D448DA6
:10027000252F30E0842F90E0821B930B541710F051
:10028000CF96089501970895FC01918D828D98175E
:1002900061F0828DDF01A80FB11D5D968C91928D6A
:1002A0009F5F9F73928F90E008958FEF9FEF089567
:1002B000FC01918D828D981731F0828DE80FF11D30
:1002C000858D90E008958FEF9FEF0895FC01918D4B
:1002D000228D892F90E0805C9F4F821B91098F7344
:1002E00099270895FC01848DDF01A80FB11DA35A41
:1002F000BF4F2C91848D90E001968F739927848F46
:10030000A689B7892C93A089B1898C918370806468
:100310008C93938D848D981306C00288F389E02D09
:1003200080818F7D80830895EF92FF920F931F93BA
:10033000CF93DF93EC0181E0888F9B8D8C8D981398
:1003400005C0E889F989808185FD26C0F62E0B8DD0
:1003500010E00F5F1F4F0F731127E02E8C8DE812F6
:100360000CC00FB607FCFACFE889F989808185FFB8
:10037000F5CFCE010E947201F1CF8B8DFE01E80F07
:10038000F11DE35AFF4FF0829FB7F8940B8FEA8973
:10039000FB89808180620AC09FB7F894EE89FF894B
:1003A0006083E889F98980818370806480839FBF3E
:1003B00081E090E0DF91CF911F910F91FF90EF903E
:1003C0000895CF93DF93EC01888D8823C9F0EA89E3
:1003D000FB89808185FD05C0A889B9898C9186FD3E
:1003E0000FC00FB607FCF5CF808185FFF2CFA8893B
:1003F000B9898C9185FFEDCFCE010E947201E7CFC4
:10040000DF91CF91089587E792E00E94660121E095
:10041000892B09F420E0822F089580E090E0892B59
:1004200021F00E940302811125C080E090E0892B19
:1004300041F080E090E0892B21F00E9400008111C2
:100440001CC080E090E0892B41F080E090E0892B97
:1004500021F00E940000811113C080E090E0892B00
:10046000A1F080E090E0892B81F00E9400008111D2
:100470000AC008950E940000D8CF0E940000E1CF7A
:100480000E940000EACF0C94000008950895CF92D6
:10049000DF92EF92FF920F931F93CF93DF936C0144
:1004A0007A018B01C0E0D0E0CE15DF0581F0D801E4
:1004B0006D918D01D601ED91FC910190F081E02DBF
:1004C000C6011995892B11F02196EECF7E01C70147
:1004D000DF91CF911F910F91FF90EF90DF90CF9020
:1004E0000895089580E090E008950895DC01ED916D
:1004F000FD918081ED91FD919081ED91FD916C9147
:1005000063708E2309F064609F2309F06860E3E95B
:10051000F2E0E60FF11D659565956D936D917D9106
:100520008D919D91099423C01AC012C016C010C0AD
:100530001EC009C014C013C006C019C009C00DC038
:1005400007C00DC014C062507040804090400BC086
:10055000615070408040904006C06E5F01C06F5F88
:100560007F4F8F4F9F4F9E938E937E936E930895F0
:1005700080916C0290916D020C94760280916A02D7
:1005800090916B020C9476028091680290916902BE
:100590000C94760280916602909167020C94760228
:1005A00080916402909165020C94760280916202BF
:1005B000909163020C9476020E94C2070C94390752
:1005C0001F920F920FB60F9211242F933F938F9388
:1005D0009F93AF93BF938091730290917402A09107
:1005E0007502B09176023091720223E0230F2D370D
:1005F00020F40196A11DB11D05C026E8230F029627
:10060000A11DB11D20937202809373029093740216
:10061000A0937502B093760280916E0290916F0262
:10062000A0917002B09171020196A11DB11D80933D
:100630006E0290936F02A0937002B0937102BF910B
:10064000AF919F918F913F912F910F900FBE0F907F
:100650001F9018951F920F920FB60F9211240BB690
:100660000F922F933F934F935F936F937F938F934B
:100670009F93AF93BF93EF93FF93E0910E02F0919E
:100680000F021995FF91EF91BF91AF919F918F91BB
:100690007F916F915F914F913F912F910F900BBE82
:1006A0000F900FBE0F901F9018951F920F920FB6CC
:1006B0000F9211240BB60F922F933F934F935F939A
:1006C0006F937F938F939F93AF93BF93EF93FF931A
:1006D000E0910C02F0910D021995FF91EF91BF91FD
:1006E000AF919F918F917F916F915F914F913F91CA
:1006F0002F910F900BBE0F900FBE0F901F9018956B
:100700001F920F920FB60F9211240BB60F922F93D8
:100710003F934F935F936F937F938F939F93AF9389
:10072000BF93EF93FF93E0910202F09103021995BA
:10073000FF91EF91BF91AF919F918F917F916F91B9
:100740005F914F913F912F910F900BBE0F900FBE75
:100750000F901F9018951F920F920FB60F921124B1
:100760000BB60F922F933F934F935F936F937F93AB
:100770008F939F93AF93BF93EF93FF93E09100020A
:10078000F09101021995FF91EF91BF91AF919F9167
:100790008F917F916F915F914F913F912F910F902A
:1007A0000BBE0F900FBE0F901F9018951F920F92C7
:1007B0000FB60F9211240BB60F922F933F934F93C6
:1007C0005F936F937F938F939F93AF93BF93EF93B9
:1007D000FF93E0910A02F0910B021995FF91EF91BE
:1007E000BF91AF919F918F917F916F915F914F9149
:1007F0003F912F910F900BBE0F900FBE0F901F9047
:1008000018951F920F920FB60F9211240BB60F92EC
:100810002F933F934F935F936F937F938F939F9308
:10082000AF93BF93EF93FF93E0910802F091090219
:100830001995FF91EF91BF91AF919F918F917F910A
:100840006F915F914F913F912F910F900BBE0F9041
:100850000FBE0F901F9018951F920F920FB60F9218
:1008600011240BB60F922F933F934F935F936F9387
:100870007F938F939F93AF93BF93EF93FF93E091F9
:100880000602F09107021995FF91EF91BF91AF9188
:100890009F918F917F916F915F914F913F912F9198
:1008A0000F900BBE0F900FBE0F901F9018951F92C8
:1008B0000F920FB60F9211240BB60F922F933F9306
:1008C0004F935F936F937F938F939F93AF93BF9358
:1008D000EF93FF93E0910402F09105021995FF91C7
:1008E000EF91BF91AF919F918F917F916F915F91A8
:1008F0004F913F912F910F900BBE0F900FBE0F9015
:100900001F9018951F920F920FB60F9211240BB6DD
:100910000F922F933F934F935F936F937F938F9398
:100920009F93AF93BF93EF93FF9387E792E00E946B
:100930007201FF91EF91BF91AF919F918F917F9144
:100940006F915F914F913F912F910F900BBE0F9040
:100950000FBE0F901F9018951F920F920FB60F9217
:1009600011240BB60F922F938F939F93EF93FF93C6
:10097000E0918702F09188028081E0918D02F091F0
:100980008E0282FD12C09081809190028F5F8F73E2
:1009900020919102821751F0E0919002F0E0E95825
:1009A000FD4F958F8093900201C08081FF91EF9160
:1009B0009F918F912F910F900BBE0F900FBE0F90B4
:1009C0001F901895CF93DF9390E0FC01E454FE4F05
:1009D0002491FC01EA58FE4F84918823C1F090E0F5
:1009E000880F991FFC01E45AFE4FC591D491FC0178
:1009F000EE5BFE4FA591B4919FB7F8948881322F9A
:100A0000309583238883EC91E22BEC939FBFDF9199
:100A1000CF910895823109F466C0B8F4823069F14B
:100A2000833009F073C0709365026093640280EDB7
:100A300092E0909303028093020280916A00837F88
:100A4000846080936A00ED9A5FC0843141F1C8F1FF
:100A5000853109F05BC070936702609366028AEC8F
:100A600092E09093050280930402809169008C7F4C
:100A7000816080936900E89A47C070936302609335
:100A8000620286ED92E090930102809300028091D1
:100A90006A008C7F816080936A00EC9A35C0709305
:100AA00069026093680284EC92E09093070280935D
:100AB000060280916900837F846080936900E99ACF
:100AC00023C070936B0260936A028EEB92E0909366
:100AD000090280930802809169008F7C8061809375
:100AE0006900EA9A11C070936D0260936C0288EB02
:100AF00092E090930B0280930A02809169008F73B9
:100B0000806480936900EB9A81E0089580E0089505
:100B10000F931F93CF93DF93EC01062F142F862F93
:100B20000E94E204812F0E94E204802F90E0FC01E9
:100B3000EA58FE4FE491F0E0EE0FFF1FE85DFE4F34
:100B4000A591B491B983A883FC01E454FE4F24918C
:100B50002C83812F90E0FC01EA58FE4FE491F0E0F5
:100B6000EE0FFF1FE85DFE4F459154915B834A8372
:100B7000FC01E454FE4F94919D831F8218861986D0
:100B80001A86EBE3FFE13197F1F7EC91E22331E0D4
:100B900009F430E0DA01EC91E92309F032603E8398
:100BA000BE01802F0E940A058B87BE01812F0E9403
:100BB0000A059B85890F8B87DF91CF911F910F913C
:100BC00008954EE250E060E372E087E792E00E9411
:100BD000470242E050E06FE572E087E792E00E9452
:100BE0004702FFCFE7E7F2E01382128288EE93E03C
:100BF000A0E0B0E084839583A683B7838AE192E086
:100C00009183808385EC90E09587848784EC90E0E5
:100C10009787868780EC90E0918B808B81EC90E0C9
:100C2000938B828B82EC90E0958B848B86EC90E0AA
:100C3000978B868B118E128E138E148E8CE292E01F
:100C400090931503809314030E94E105789484B572
:100C5000826084BD84B5816084BD85B5826085BDB8
:100C600085B5816085BD80916E00816080936E0046
:100C70001092810080918100826080938100809138
:100C800081008160809381008091800081608093E9
:100C900080008091B10084608093B1008091B000A9
:100CA00081608093B0008091910082608093910078
:100CB000809191008160809391008091900081608B
:100CC000809390008091A10082608093A100809128
:100CD000A10081608093A1008091A0008160809339
:100CE000A0008091210182608093210180912101E7
:100CF0008160809321018091200181608093200197
:100D000080917A00846080937A0080917A0082607A
:100D100080937A0080917A00816080937A0080913C
:100D20007A00806880937A001092C1000E940D02C0
:100D3000FDCFEE0FFF1F881F8BBF0790F691E02DB0
:100D400019940F931F93CF93DF938230910510F482
:100D500082E090E0E0911903F0911A0320E030E086
:100D6000A0E0B0E0309719F14081518102811381F8
:100D700048175907C8F08417950769F4109731F0A0
:100D800012960C93129713961C9327C00093190385
:100D900010931A0322C02115310519F04217530789
:100DA00018F49A01BD01EF01DF01F801DBCF211535
:100DB0003105F9F0281B390B2430310580F48A8184
:100DC0009B816115710521F0FB019383828304C02F
:100DD00090931A0380931903FE01329644C0FE01DA
:100DE000E20FF31F819391932250310939832883B5
:100DF0003AC02091170330911803232B41F420911E
:100E0000120230911302309318032093170320919C
:100E10001002309111022115310541F42DB73EB772
:100E20004091140250911502241B350BE0911703D9
:100E3000F0911803E217F307A0F42E1B3F0B2817BD
:100E4000390778F0AC014E5F5F4F2417350748F043
:100E50004E0F5F1F50931803409317038193919394
:100E600002C0E0E0F0E0CF01DF91CF911F910F9140
:100E70000895CF93DF93009709F481C0FC01329766
:100E800013821282A0911903B0911A03109781F472
:100E900020813181820F931F209117033091180315
:100EA0002817390751F5F0931803E093170367C02B
:100EB000ED0120E030E0CE17DF0740F44A815B818E
:100EC0009E0141155105F1F0EA01F5CFD383C283AC
:100ED00040815181840F951FC817D90759F4888123
:100EE0009981840F951F0296918380838A819B81CB
:100EF000938382832115310529F4F0931A03E0933B
:100F000019033DC0E901FB83EA8349915991C40F5C
:100F1000D51FEC17FD0761F480819181840F951F27
:100F20000296E90199838883828193819B838A83D6
:100F3000E0E0F0E012968D919C911397009719F0E4
:100F4000FD01DC01F7CF8D919C9111979D012E5FE2
:100F50003F4F820F931F20911703309118032817DA
:100F6000390769F4309729F410921A031092190383
:100F700002C013821282B0931803A0931703DF916B
:100F8000CF91089581E090E0F8940C94C707F8940D
:020F9000FFCF91
:100F9200460246024602460246024602460246020F
:100FA20000001B038000000000009401470235018D
:100FB200E101660144015801000000007502DE02F1
:100FC20057726F6E6720706F727420696E20526163
:100FD2006E676553656E736F72206F626A656374C4
:100FE200202D3E207768696C652831297B7D000DB4
:020FF2000A00F3
:00000001FF
