:100000000C94D0010C94BB050C9490050C946505E0
:100010000C943A050C940F050C94E4040C94160A05
:100020000C94EB090C9401020C9401020C94010253
:100030000C9401020C9401020C9401020C94010234
:100040000C9401020C9401020C9401020C94010224
:100050000C9401020C9401020C9401020C94A1096D
:100060000C9401020C9410060C94E6050C94010209
:100070000C9401020C9401020C9401020C940102F4
:100080000C9401020C9401020C9401020C940102E4
:100090000C9401020C9401020C9401020C940102D4
:1000A0000C9401020C9401020C9401020C940102C4
:1000B0000C9401020C9401020C9401020C940102B4
:1000C0000C9401020C9401020C9446060C9401025B
:1000D0000C9401020C9401020C9401020C94010294
:1000E0000C940102530859085F086B087708060949
:1000F00083088C089508A108AD08B908CA08D60875
:100100000609E208EE08FA0831093409230927092B
:100110002B096B0938093C09420946094A0950096B
:10012000540958096B095E0962096609076342367A
:10013000B79BD8A71A39685618AEBAAB558C1D3C78
:10014000B7CC5763BD6DEDFD753EF6177231BF003C
:100150000000803F08000000BE922449123EABAA76
:10016000AA2ABECDCCCC4C3E00000080BEABAAAAD1
:10017000AA3E00000000BF000000803F0000000019
:1001800000084178D3BB4387D1133D190E3CC3BD52
:100190004282AD2B3E68EC8276BED98FE1A93E4CFF
:1001A00080EFFFBE01C4FF7F3F00000000000C9401
:1001B00066090C946B090C9454090C9427090C944F
:1001C000CA080C9432020C9463020C9450090C94EB
:1001D000AD080C942B090C94FA080C9455020C945D
:1001E00071060C9431090C94E8020C94E2080C940A
:1001F00006090C9477080C9438090C9404020C94AA
:1002000041020C9462090C949D030C94E2040C943A
:100210008C080C946B080C944A090C9483080C9479
:1002200058090C945E090C948B030C9442090C94AD
:1002300046090C94A3030C9491030C9495080C9418
:1002400034090C94EE080C9453080C9497030C9406
:100250003F0C0C9423090C94D6080C9403020C94C4
:100260003C090C9459080C945F080C94A1080C9458
:10027000B9080C9485030C949B020C94A90300000C
:1002800020002300260029002C002F00320000014E
:1002900000000301060109010000210024002700DD
:1002A0002A002D0030003300010100000401070185
:1002B0000A0100002200250028002B002E0031003A
:1002C000340002010000050108010B0105050505C8
:1002D000070508080808020202020A0A08080404BE
:1002E00004040101010101010101030303030303EC
:1002F0000303040707070C0C0C0C0C0C0C0C02027B
:10030000020206060606060606060B0B0B0B0B0B77
:100310000B0B010210202008081020401020408004
:1003200002010201080402010102040810204080B9
:100330008040201008040201800402018040201047
:100340000804020108040201010204081020408090
:10035000010204081020408000000A0B02090C0D65
:100360000E08070304010000000000000000000068
:10037000000000000000000000000000000000007D
:10038000000000001211100000000000000000003A
:1003900000000000000000000000000000003F0C12
:1003A00011241FBECFEFD1E2DEBFCDBF00E00CBFF6
:1003B00023E0A8E3B2E001C01D92A831B207E1F743
:1003C00012E0A0E0B2E0EAE5F5E200E00BBF02C017
:1003D00007900D92A833B107D9F711E0C0EDD1E035
:1003E00000E006C021970109802FFE010E948810BD
:1003F000CF3CD10780E00807A9F70E94BF0A0C9400
:10040000AB120C9400000895CF92DF92EF92FF920E
:100410000F931F93CF93DF936C017A018B01C0E0A0
:10042000D0E0CE15DF0581F0D8016D918D01D601A8
:10043000ED91FC910190F081E02DC6011995892B79
:1004400011F02196EECF7E01C701DF91CF911F9170
:100450000F91FF90EF90DF90CF900895089580E086
:1004600090E00895FC01538D448D252F30E0842FBA
:1004700090E0821B930B541710F0CF9608950197CC
:100480000895FC01918D828D981761F0828DDF01B6
:10049000A80FB11D5D968C91928D9F5F9F73928F77
:1004A00090E008958FEF9FEF0895FC01918D828D6C
:1004B000981731F0828DE80FF11D858D90E0089539
:1004C0008FEF9FEF0895FC01918D228D892F90E091
:1004D000805C9F4F821B91098F73992708958DE44B
:1004E00092E00E94630221E0892B09F420E0822F30
:1004F0000895FC01848DDF01A80FB11DA35ABF4FE1
:100500002C91848D90E001968F739927848FA68912
:10051000B7892C93A089B1898C91837080648C9366
:10052000938D848D981306C00288F389E02D808115
:100530008F7D80830895EF92FF920F931F93CF9347
:10054000DF93EC0181E0888F9B8D8C8D981305C023
:10055000E889F989808185FD26C0F62E0B8D10E093
:100560000F5F1F4F0F731127E02E8C8DE8120CC008
:100570000FB607FCFACFE889F989808185FFF5CFAE
:10058000CE010E947902F1CF8B8DFE01E80FF11DA3
:10059000E35AFF4FF0829FB7F8940B8FEA89FB89EB
:1005A000808180620AC09FB7F894EE89FF896083DA
:1005B000E889F98980818370806480839FBF81E0AE
:1005C00090E0DF91CF911F910F91FF90EF900895F0
:1005D000CF93DF93EC01888D8823C9F0EA89FB89EA
:1005E000808185FD05C0A889B9898C9186FD0FC0E1
:1005F0000FB607FCF5CF808185FFF2CFA889B989B6
:100600008C9185FFEDCFCE010E947902E7CFDF917B
:10061000CF91089580E090E0892B21F00E946F0235
:10062000811125C080E090E0892B41F080E090E0CE
:10063000892B21F00E94000081111CC080E090E015
:10064000892B41F080E090E0892B21F00E9400008E
:10065000811113C080E090E0892BA1F080E090E050
:10066000892B81F00E94000081110AC008950E9428
:100670000000D8CF0E940000E1CF0E940000EACF26
:100680000C9400000895DC01ED91FD918081ED91C5
:10069000FD919081ED91FD916C9163708E2309F035
:1006A00064609F2309F06860E0E6F3E0E60FF11D67
:1006B000659565956D936D917D918D919D91099451
:1006C00023C01AC012C016C010C01EC009C014C07A
:1006D00013C006C019C009C00DC007C00DC014C0AA
:1006E00062507040804090400BC06150704080402C
:1006F000904006C06E5F01C06F5F7F4F8F4F9F4F6E
:100700009E938E937E936E93089580914202909172
:1007100043020C94430380914002909141020C9457
:10072000430380913E0290913F020C9443038091D9
:100730003C0290913D020C94430380913A029091C7
:100740003B020C94430380913802909139020C943F
:1007500043030F931F93CF93DF93CDB7DEB7AA97D1
:100760000FB6F894DEBF0FBECDBF20914B02309183
:100770004C020091490210914A02F8018381948150
:10078000A581B681F90183839483A583B683F8019B
:1007900087819085A185B285F90187839087A1879C
:1007A000B28782E093E00E94CC06F801828388E061
:1007B00093E00E94CC06F801808385E093E00E94DC
:1007C000CC06F801818380910103823030F4F894E3
:1007D00086EF92E00E94430301C0F8948091FD02ED
:1007E0009091FE02A091FF02B09100037894F8016D
:1007F00083839483A583B6830091490210914A02B2
:100800008091F502823030F4F8948AEE92E00E94F2
:10081000430301C0F8948091F1029091F202A091FB
:10082000F302B091F4027894F80187839087A1874E
:10083000B287E0914902F0914A0247815085618573
:100840007285E0914B02F0914C0287819085A185E1
:10085000B285481B590B6A0B7B0BCE014F960E9449
:100860008D07E0914902F0914A02438154816581EC
:100870007681E0914B02F0914C0283819481A581B5
:10088000B681481B590B6A0B7B0BCE0149960E941F
:100890008D07E0914902F0914A026181CE014396B1
:1008A0000E94C507E0914902F0914A026281CE019F
:1008B0000D960E94C507E0914902F0914A026081BD
:1008C000CE0107960E94C5071A8219821C821B82DC
:1008D0001E821D8243E050E060E372E0CE0101968B
:1008E0000E946C07BE01695F7F4FCE0101960E9496
:1008F00015070E944807BE01635F7F4F0E941507DE
:100900000E944807BE016D5E7F4F0E9415070E943E
:100910004807BE01675E7F4F0E9415070E94480787
:10092000BE01615E7F4F0E9415071EA21DA218A680
:100930001FA21AA619A68E010B5D1F4F80179107E3
:1009400059F0FC01608171816115710529F04481C4
:100950005581C8010E946C07CE0101960E941007C4
:10096000CE0107960E941007CE010D960E94100737
:10097000CE0143960E941007CE0149960E941007AF
:10098000CE014F960E94100749A55AA56DA17EA1E0
:100990008DE492E00E94040242E050E064E372E0E1
:1009A0008DE492E00E940402C8010E941007AA96FA
:1009B0000FB6F894DEBF0FBECDBFDF91CF911F9170
:1009C0000F9108950C9428111F920F920FB60F9259
:1009D00011240BB60F922F933F934F935F936F9316
:1009E0007F938F939F93AF93BF93EF93FF93E09188
:1009F0000202F09103021995FF91EF91BF91AF911F
:100A00009F918F917F916F915F914F913F912F9126
:100A10000F900BBE0F900FBE0F901F9018951F9256
:100A20000F920FB60F9211240BB60F922F933F9394
:100A30004F935F936F937F938F939F93AF93BF93E6
:100A4000EF93FF93E0910002F09101021995FF915D
:100A5000EF91BF91AF919F918F917F916F915F9136
:100A60004F913F912F910F900BBE0F900FBE0F90A3
:100A70001F9018951F920F920FB60F9211240BB66C
:100A80000F922F933F934F935F936F937F938F9327
:100A90009F93AF93BF93EF93FF93E0910A02F0917E
:100AA0000B021995FF91EF91BF91AF919F918F919B
:100AB0007F916F915F914F913F912F910F900BBE5E
:100AC0000F900FBE0F901F9018951F920F920FB6A8
:100AD0000F9211240BB60F922F933F934F935F9376
:100AE0006F937F938F939F93AF93BF93EF93FF93F6
:100AF000E0910802F09109021995FF91EF91BF91E1
:100B0000AF919F918F917F916F915F914F913F91A5
:100B10002F910F900BBE0F900FBE0F901F90189546
:100B20001F920F920FB60F9211240BB60F922F93B4
:100B30003F934F935F936F937F938F939F93AF9365
:100B4000BF93EF93FF93E0910602F091070219958E
:100B5000FF91EF91BF91AF919F918F917F916F9195
:100B60005F914F913F912F910F900BBE0F900FBE51
:100B70000F901F9018951F920F920FB60F9211248D
:100B80000BB60F922F933F934F935F936F937F9387
:100B90008F939F93AF93BF93EF93FF93E0910402E2
:100BA000F09105021995FF91EF91BF91AF919F913F
:100BB0008F917F916F915F914F913F912F910F9006
:100BC0000BBE0F900FBE0F901F9018951F920F92A3
:100BD0000FB60F9211240BB60F922F933F934F93A2
:100BE0005F936F937F938F939F93AF93BF93EF9395
:100BF000FF938DE492E00E947902FF91EF91BF9103
:100C0000AF919F918F917F916F915F914F913F91A4
:100C10002F910F900BBE0F900FBE0F901F90189545
:100C20001F920F920FB60F9211240BB60F922F93B3
:100C30008F939F93EF93FF93E0915D02F0915E029B
:100C40008081E0916302F091640282FD12C0908184
:100C5000809166028F5F8F7320916702821751F037
:100C6000E0916602F0E0E35BFD4F958F80936602B2
:100C700001C08081FF91EF919F918F912F910F90F3
:100C80000BBE0F900FBE0F901F9018951F920F92E2
:100C90000FB60F9211240BB60F922F933F934F93E1
:100CA0005F936F937F938F939F93AF93BF93EF93D4
:100CB000FF93E0914702F09148021995FF91EF915F
:100CC000BF91AF919F918F917F916F915F914F9164
:100CD0003F912F910F900BBE0F900FBE0F901F9062
:100CE00018950895863308F0865390917B00282F3D
:100CF0002870977F922B90937B00877080648093FD
:100D00007C0080917A00806480937A0080917A00E0
:100D100086FDFCCF809178002091790090E0922BA5
:100D20000895CF93DF93EC0188819981009711F0AA
:100D30000E942811198218821D821C821B821A822D
:100D4000DF91CF9108950E9496120F931F93CF9336
:100D5000DF93EC0188819981009729F02A813B81FA
:100D60002617370788F48B016F5F7F4F0E94B11100
:100D7000009761F0998388831B830A832C813D81CE
:100D8000232B11F4FC01108281E001C080E0DF918F
:100D9000CF911F910F910895CF92DF92EF92FF9222
:100DA0000F931F93CF93DF937C01CAE0D0E0F7014C
:100DB00082810E947206C80ED91E2197C1F7FAE0FF
:100DC000CF16D10418F1CAE0D0E0F70182810E9469
:100DD0007206080F191F2197C1F7C8016AE070E079
:100DE0000E94741080E090E00E94E60C2CE934EC44
:100DF00040ED5FEB0E94100E20E03BE145E858E437
:100E00000E94230D0E94E10D862F01C080E0DF913A
:100E1000CF911F910F91FF90EF90DF90CF900895A9
:100E2000FC01808191810C942811EF92FF920F9325
:100E30001F93CF93DF93EC01FB0104811581E080C8
:100E4000F180E114F104C9F001151105C9F08C819C
:100E50009D81080F191FB801CE010E94A5068823A5
:100E600061F0288139818C819D81B701820F931FA8
:100E70000E94A4121D830C8303C0CE010E94910620
:100E8000CE01DF91CF911F910F91FF90EF900895C8
:100E90000F931F93CF93DF93EC010C811D810D5FA6
:100EA0001F4FB8010E94A506882369F02881398167
:100EB0008C819D8160E372E0820F931F0E94A412D7
:100EC0001D830C8303C0CE010E949106CE01DF91E9
:100ED000CF911F910F910895EF92FF920F931F935F
:100EE000CF93DF93EC017B018A01BA010E94A50632
:100EF000811104C0CE010E94910607C01D830C839E
:100F0000B701888199810E94A412CE01DF91CF910F
:100F10001F910F91FF90EF900895EF92FF920F9322
:100F20001F93CF93DF93CDB7DEB7A2970FB6F89498
:100F3000DEBF0FBECDBF8C01CB01BA01F80111821B
:100F4000108213821282158214822AE0AE014F5F52
:100F50005F4F7A010E948B0CF70101900020E9F7A6
:100F60003197AF014E195F09B701C8010E946C07A4
:100F7000A2960FB6F894DEBF0FBECDBFDF91CF9122
:100F80001F910F91FF90EF900895EF92FF920F93B2
:100F90001F93CF93DF93CDB7DEB729970FB6F894A1
:100FA000DEBF0FBECDBF8C01862FF80111821082EB
:100FB00013821282158214824AE09E012F5F3F4FF6
:100FC0007901B90190E00E94BC0CF701019000206A
:100FD000E9F73197AF014E195F09B701C8010E94C7
:100FE0006C0729960FB6F894DEBF0FBECDBFDF9118
:100FF000CF911F910F91FF90EF900895CF93DF93C2
:1010000090E0FC01EE5EFC4F2491FC01E453FD4FA7
:101010008491882361F190E0880F991FFC01E856C4
:10102000FD4FC591D491FC01EE54FD4FA591B491B3
:10103000611109C09FB7F894888120958223888325
:10104000EC912E230BC0623061F49FB7F894888135
:10105000322F309583238883EC912E2B2C939FBFC6
:1010600006C08FB7F894E8812E2B28838FBFDF91BD
:10107000CF910895CF93C82F61E00E94FE072C2FD7
:1010800030E0A901485A5C4FFA01849190E0FC01DC
:101090003197E231F10508F0B9C08827EE58FF4FCB
:1010A0008F4F0C94881084B5806884BD8FE787BD0E
:1010B00021C184B5806284BD8FE788BD1BC180914A
:1010C00080008068809380008FE790E09093890093
:1010D000809388000FC1809180008062809380009F
:1010E0008FE790E090938B0080938A0003C18091FA
:1010F00080008860809380008FE790E090938D005F
:1011000080938C00F7C08091B00080688093B0001D
:101110008FE78093B300EEC08091B000806280932F
:10112000B0008FE78093B400E5C0809190008068A4
:10113000809390008FE790E09093990080939800BF
:10114000D9C0809190008062809390008FE790E0FA
:1011500090939B0080939A00CDC08091900088600E
:10116000809390008FE790E090939D0080939C0087
:10117000C1C08091A00080688093A0008091A000F1
:101180008F7B8093A0008FE790E09093A9008093DD
:10119000A800B0C08091A00080628093A0008FE77B
:1011A00090E09093AB008093AA00A4C08091A0002F
:1011B00088608093A0008FE790E09093AD008093CB
:1011C000AC0098C0809120018068809320018FE757
:1011D00090E090932901809328018CC08091200198
:1011E0008062809320018FE790E090932B018093A1
:1011F0002A0180C0809120018860809320018FE7C0
:1012000090E090932D0180932C0174C0FA014491D9
:10121000F901EE5EFC4F9491F901E453FD4F2491E6
:10122000222309F467C0442309F455C050E0FA01B1
:101230003197E231F10508F04EC08827EC57FF4F97
:101240008F4F0C948810809180008F7707C0809119
:1012500080008F7D03C080918000877F8093800015
:101260003AC084B58F7702C084B58F7D84BD33C00A
:101270008091B0008F7703C08091B0008F7D809304
:10128000B00029C0809190008F7707C080919000B6
:101290008F7D03C080919000877F809390001BC05A
:1012A0008091A0008F7707C08091A0008F7D03C040
:1012B0008091A000877F8093A0000DC080912001C5
:1012C0008F7707C0809120018F7D03C0809120011E
:1012D000877F80932001E22FF0E0EE0FFF1FEE5496
:1012E000FD4FA591B4912FB7F8948C9190959823C8
:1012F0009C932FBFCF9108953FB7F894809110032E
:1013000090911103A0911203B091130326B5A89BED
:1013100005C02F3F19F00196A11DB11D3FBFBA2F87
:10132000A92F982F8827820F911DA11DB11DBC01E7
:10133000CD0142E0660F771F881F991F4A95D1F7AC
:1013400008951F920F920FB60F9211242F933F937F
:101350008F939F93AF93BF9380910C0390910D0354
:10136000A0910E03B0910F0330910B0323E0230FE4
:101370002D3720F40196A11DB11D05C026E8230FCD
:101380000296A11DB11D20930B0380930C03909333
:101390000D03A0930E03B0930F038091100390915F
:1013A0001103A0911203B09113030196A11DB11D69
:1013B0008093100390931103A0931203B09313032F
:1013C000BF91AF919F918F913F912F910F900FBE41
:1013D0000F901F9018951F920F920FB60F92112425
:1013E0000BB60F922F933F934F935F936F937F931F
:1013F0008F939F93AF93BF93EF93FF93E0910E0270
:10140000F0910F021995FF91EF91BF91AF919F91CC
:101410008F917F916F915F914F913F912F910F909D
:101420000BBE0F900FBE0F901F9018951F920F923A
:101430000FB60F9211240BB60F922F933F934F9339
:101440005F936F937F938F939F93AF93BF93EF932C
:10145000FF93E0910C02F0910D021995FF91EF912D
:10146000BF91AF919F918F917F916F915F914F91BC
:101470003F912F910F900BBE0F900FBE0F901F90BA
:101480001895823109F466C0B8F4823069F183306E
:1014900009F073C070933B0260933A028DE993E0C8
:1014A000909303028093020280916A00837F84609C
:1014B00080936A00ED9A5FC0843141F1C8F18531B3
:1014C00009F05BC070933D0260933C0287E993E0B2
:1014D0009093050280930402809169008C7F816063
:1014E00080936900E89A47C070933902609338028C
:1014F00083EA93E0909301028093000280916A0056
:101500008C7F816080936A00EC9A35C070933F02B3
:1015100060933E0281E993E0909307028093060274
:1015200080916900837F846080936900E99A23C079
:1015300070934102609340028BE893E0909309021C
:1015400080930802809169008F7C8061809369009C
:10155000EA9A11C0709343026093420285E893E0D7
:1015600090930B0280930A02809169008F738064CC
:1015700080936900EB9A81E0089580E00895789463
:1015800084B5826084BD84B5816084BD85B5826088
:1015900085BD85B5816085BD80916E008160809339
:1015A0006E001092810080918100826080938100A2
:1015B00080918100816080938100809180008160B2
:1015C000809380008091B10084608093B10080910D
:1015D000B00081608093B000809191008260809320
:1015E00091008091910081608093910080919000A2
:1015F0008160809390008091A10082608093A1001F
:101600008091A10081608093A1008091A000816001
:101610008093A000809121018260809321018091BC
:10162000210181608093210180912001816080935C
:10163000200180917A00846080937A0080917A0002
:10164000826080937A0080917A00816080937A0032
:1016500080917A00806880937A001092C1008BE0BC
:1016600090E00E94901090934C0280934B028BE08C
:1016700090E00E94901090934A0280934902F8945F
:101680001092FD021092FE021092FF0210920003CF
:101690007894F8941092F1021092F2021092F302F0
:1016A0001092F4027894E0915D02F0915E0282E083
:1016B0008083E0915902F0915A021082E0915B021E
:1016C000F0915C0290E1908310926502E0916102DA
:1016D000F091620286E08083E0915F02F091600207
:1016E000808180618083E0915F02F091600280815F
:1016F00088608083E0915F02F09160028081806861
:101700008083E0915F02F091600280818F7D808311
:10171000109220019093210183E08093460284ED92
:1017200090E3909345028093440290932701809325
:10173000260180912101887F8093210180912101E0
:1017400083608093210189EA93E09093480280931B
:10175000470281E0809373007894909121018091F9
:101760004602892B809321010E947C094B015C0178
:1017700080EDC82E87E0D82EE12CF12C0E947C0948
:10178000DC01CB0188199909AA09BB09883E93405D
:10179000A105B10598F321E0C21AD108E108F108CA
:1017A00088EE880E83E0981EA11CB11CC114D104E0
:1017B000E104F10419F784E00E943A0889E00E94EC
:1017C0003A080E940A03F7CF0F931F93CF93DF933A
:1017D000EC01062F142F62E0802F0E94FE0762E0CA
:1017E000812F0E94FE07802F90E0FC01E453FD4F03
:1017F000E491F0E0EE0FFF1FE258FD4FA591B49188
:10180000B983A883FC01EE5EFC4F24912C83812FC9
:1018100090E0FC01E453FD4FE491F0E0EE0FFF1F78
:10182000E258FD4F459154915B834A83FC01EE5E83
:10183000FC4F94919D831F82188619861A86EBE3CC
:10184000FFE13197F1F7EC91E22331E009F430E068
:10185000DA01EC91E92309F032603E83BE01802F6A
:101860000E94410A8B87BE01812F0E94410A9B85FD
:10187000890F8B87DF91CF911F910F910895EDE430
:10188000F2E01382128288EE93E0A0E0B0E084835D
:101890009583A683B7838AE192E09183808385EC68
:1018A00090E09587848784EC90E09787868780EC2A
:1018B00090E0918B808B81EC90E0938B828B82EC1B
:1018C00090E0958B848B86EC90E0978B868B118EC5
:1018D000128E138E148EE8E0F3E08CE292E0918396
:1018E000808328E32283E5E0F3E0918380832AE389
:1018F0002283E2E0F3E09183808389E3828342E103
:1019000063E186EF92E00E94E40B43E062E08AEE3E
:1019100092E00C94E40BBB272A3051F4992342F453
:10192000BDE290958095709561957F4F8F4F9F4F49
:101930000C949B0CBB27FA01A62F62177105810539
:101940009105330B30FB66F0AA27660F771F881FBF
:10195000991FAA1FA21710F0A21B63953850A9F770
:10196000A05DAA3308F0A95DA19336F7B111B19338
:101970001082CA010C94D60CBB27FB015527AA275D
:10198000880F991FAA1FA41710F0A41B839550510C
:10199000B9F7A05DAA3308F0A95DA193009779F784
:1019A000B111B1931192CB010C94D60CDC01FC0166
:1019B000672F71917723E1F7329704C07C916D9383
:1019C00070836291AE17BF07C8F30895E89409C009
:1019D00097FB3EF490958095709561957F4F8F4F62
:1019E0009F4F9923A9F0F92F96E9BB279395F69578
:1019F000879577956795B795F111F8CFFAF4BB0FF6
:101A000011F460FF1BC06F5F7F4F8F4F9F4F16C059
:101A1000882311F096E911C0772321F09EE8872FE3
:101A2000762F05C0662371F096E8862F70E060E09F
:101A30002AF09A95660F771F881FDAF7880F969518
:101A4000879597F908950E94360D0C94A70D0E9472
:101A5000990D38F00E94A00D20F0952311F00C9400
:101A6000900D0C94960D11240C94DB0D0E94B80D72
:101A700070F3959FC1F3950F50E0551F629FF001E1
:101A8000729FBB27F00DB11D639FAA27F00DB11DFA
:101A9000AA1F649F6627B00DA11D661F829F222783
:101AA000B00DA11D621F739FB00DA11D621F839F0A
:101AB000A00D611D221F749F3327A00D611D231FE0
:101AC000849F600D211D822F762F6A2F11249F572E
:101AD00050409AF0F1F088234AF0EE0FFF1FBB1F31
:101AE000661F771F881F91505040A9F79E3F5105F0
:101AF00080F00C94900D0C94DB0D5F3FE4F3983E66
:101B0000D4F3869577956795B795F795E7959F5F99
:101B1000C1F7FE2B880F911D9695879597F908952B
:101B200097F99F6780E870E060E008959FEF80EC90
:101B3000089500240A941616170618060906089533
:101B400000240A9412161306140605060895092E99
:101B50000394000C11F4882352F0BB0F40F4BF2B08
:101B600011F460FF04C06F5F7F4F8F4F9F4F089548
:101B700057FD9058440F551F59F05F3F71F047953E
:101B8000880F97FB991F61F09F3F79F08795089523
:101B9000121613061406551FF2CF4695F1DF08C042
:101BA000161617061806991FF1CF8695710561055F
:101BB00008940895E894BB2766277727CB0197F907
:101BC00008950E94C00D88F09F5798F0B92F99276B
:101BD000B751B0F0E1F0660F771F881F991F1AF018
:101BE000BA95C9F714C0B13091F00E94DA0DB1E096
:101BF00008950C94DA0D672F782F8827B85F39F095
:101C0000B93FCCF3869577956795B395D9F73EF4B0
:101C100090958095709561957F4F8F4F9F4F089558
:101C2000FA01EE0FFF1F309621053105A1F1611574
:101C3000710561F48038BFE39B0749F168949038DF
:101C4000810561F08038BFEF9B0741F099234AF589
:101C5000FF3FE1053105210519F1E8940894E79566
:101C6000D901AA2329F4AB2FBE2FF85FD0F310C0FF
:101C7000FF5F70F4A695E0F7F73950F019F0FF3ADE
:101C800038F49F779F930DD00F9007FC90580895DC
:101C900046F00C94960D60E070E080E89FE30895B4
:101CA0004FE79F775F934F933F932F930E940B0FC4
:101CB0002F913F914F915F910E94230D0C94680EDC
:101CC00029F416F00C94900D0C94DA0D0C94960DEA
:101CD0000E94C00DA8F39638A0F707F80F92E89479
:101CE0002BE33AEA48EB5FE70E94390D0F920F921F
:101CF0000F924DB75EB70F920E94530FECE2F1E0E6
:101D00000E949A0E4F915F91EF91FF91E595EE1F22
:101D1000FF1F49F0FE57E0684427EE0F441FFA9575
:101D2000E1F74195550B0E94CD0E0F9007FE0C94E4
:101D3000C10E0895DF93CF931F930F93FF92EF92FD
:101D4000DF927B018C01689406C0DA2EEF010E94BD
:101D5000360DFE01E894A591259135914591559157
:101D6000A6F3EF010E949F0FFE019701A801DA94EC
:101D700069F7DF90EF90FF900F911F91CF91DF9166
:101D800008959B01AC0160E070E080E89FE30C9453
:101D9000F40F0C94900D0C9466100E94C00DD8F3B3
:101DA0009923C9F3940F511DA3F39150504094F01F
:101DB00059F0882332F0660F771F881F91505040EA
:101DC000C1F79E3F51052CF7880F911D9695879579
:101DD00097F908955F3FACF0983E9CF0BB2786953D
:101DE00077956795B79508F4B1609395C1F7BB0FE8
:101DF00058F711F460FFE8CF6F5F7F4F8F4F9F4F11
:101E0000E3CF0C94DB0D16F00C9466100C94960D39
:101E100068940C94900D0E94C00DA8F39923C1F30F
:101E2000AEF3DF93CF931F930F93FF92C92FDD275C
:101E300088232AF02197660F771F881FDAF720E0A2
:101E400030E040E85FEB9FE3883920F0803E38F0D7
:101E500021968F770E94880FE4E5F1E004C00E948C
:101E6000880FE1E8F1E00E949A0E8B01BE01EC01BF
:101E7000FB2E6F5771097595771F880B990B0E9480
:101E8000E80C28E132E741E35FE30E94360DAF2D15
:101E90009801AE01FF900F911F91CF91DF910E94A9
:101EA0009F0F0C94A70DFA01DC01AA0FBB1F9B0129
:101EB000AC01BF5728F4222733274427507820C08D
:101EC000B75190F4AB2F0024469537952795011C08
:101ED000A395D2F3002071F0220F331F441FB39556
:101EE000DAF30ED00C94870F61307105A0E88A07F1
:101EF000B94630F49B01AC01662777278827907894
:101F0000309621F0208331834283538308955058C3
:101F1000BB27AA270E949F0F0C94A70D0E94990D22
:101F200038F00E94A00D20F039F49F3F19F426F4F8
:101F30000C94960D0EF4E095E7FB0C94900DE92FB0
:101F40000E94B80D58F3BA17620773078407950704
:101F500020F079F4A6F50C94DA0D0EF4E0950B2E32
:101F6000BA2FA02D0B01B90190010C01CA01A001EB
:101F70001124FF27591B99F0593F50F4503E68F146
:101F80001A16F040A22F232F342F4427585FF3CF87
:101F9000469537952795A795F0405395C9F77EF458
:101FA0001F16BA0B620B730B840BBAF09150A1F0A1
:101FB000FF0FBB1F661F771F881FC2F70EC0BA0F27
:101FC000621F731F841F48F4879577956795B795AF
:101FD000F7959E3F08F0B0CF9395880F08F09927AA
:101FE000EE0F9795879508950E9408100C94A70D01
:101FF0000E94A00D58F00E94990D40F029F45F3F17
:1020000029F00C94900D51110C94DB0D0C94960D4D
:102010000E94B80D68F39923B1F3552391F3951BF2
:10202000550BBB27AA2762177307840738F09F5FF9
:102030005F4F220F331F441FAA1FA9F335D00E2E66
:102040003AF0E0E832D091505040E695001CCAF7D3
:102050002BD0FE2F29D0660F771F881FBB1F261796
:1020600037074807AB07B0E809F0BB0B802DBF016D
:10207000FF2793585F4F3AF09E3F510578F00C943C
:10208000900D0C94DB0D5F3FE4F3983ED4F38695FE
:1020900077956795B795F7959F5FC9F7880F911D5D
:1020A0009695879597F90895E1E0660F771F881F49
:1020B000BB1F621773078407BA0720F0621B730BFC
:1020C000840BBA0BEE1F88F7E09508959F3F31F01F
:1020D000915020F4879577956795B795880F911D56
:1020E0009695879597F90895AA1BBB1B51E107C0E8
:1020F000AA1FBB1FA617B70710F0A61BB70B881F98
:10210000991F5A95A9F780959095BC01CD01089526
:10211000EE0FFF1F881F8BBF0790F691E02D1994DB
:102120000F931F93CF93DF938230910510F482E0D9
:1021300090E0E0911603F091170320E030E0A0E07A
:10214000B0E0309719F14081518102811381481725
:102150005907C8F08417950769F4109731F0129663
:102160000C93129713961C9327C000931603109399
:10217000170322C02115310519F04217530718F42F
:102180009A01BD01EF01DF01F801DBCF2115310517
:10219000F9F0281B390B2430310580F48A819B81AA
:1021A0006115710521F0FB019383828304C0909334
:1021B000170380931603FE01329644C0FE01E20F1E
:1021C000F31F8193919322503109398328833AC0B8
:1021D0002091140330911503232B41F42091120216
:1021E00030911302309315032093140320911002B1
:1021F000309111022115310541F42DB73EB74091C0
:10220000140250911502241B350BE0911403F09138
:102210001503E217F307A0F42E1B3F0B281739070D
:1022200078F0AC014E5F5F4F2417350748F04E0F32
:102230005F1F50931503409314038193919302C041
:10224000E0E0F0E0CF01DF91CF911F910F91089571
:10225000CF93DF93009709F481C0FC01329713827A
:102260001282A0911603B0911703109781F4208178
:102270003181820F931F2091140330911503281789
:10228000390751F5F0931503E093140367C0ED018E
:1022900020E030E0CE17DF0740F44A815B819E01E9
:1022A00041155105F1F0EA01F5CFD383C283408196
:1022B0005181840F951FC817D90759F488819981D6
:1022C000840F951F0296918380838A819B819383DB
:1022D00082832115310529F4F0931703E093160347
:1022E0003DC0E901FB83EA8349915991C40FD51F91
:1022F000EC17FD0761F480819181840F951F029690
:10230000E90199838883828193819B838A83E0E0BA
:10231000F0E012968D919C911397009719F0FD01B2
:10232000DC01F7CF8D919C9111979D012E5F3F4F5E
:10233000820F931F2091140330911503281739073A
:1023400069F4309729F4109217031092160302C013
:1023500013821282B0931503A0931403DF91CF91DF
:1023600008956F927F928F929F92AF92BF92CF9279
:10237000DF92EF92FF920F931F93CF93DF9300971B
:1023800089F4CB01DF91CF911F910F91FF90EF90D6
:10239000DF90CF90BF90AF909F908F907F906F9085
:1023A0000C949010FC01E60FF71F9C01225031099C
:1023B000E217F30708F4A9C0EC01D9010D911C91B3
:1023C000119706171707B0F00530110508F49BC0E8
:1023D000C80104978617970708F495C002501109A1
:1023E000061B170B019311936D937C93CF010E94F1
:1023F000281189C05B01A01AB10A4C01800E911E00
:10240000A0911603B0911703612C712CE12CF12CD3
:10241000109709F446C08D919C911197A815B905A4
:10242000B1F56C0142E0C40ED11CCA14DB0478F192
:102430004C018A189B08640142E0C40ED11C12961C
:10244000BC9012971396AC91B5E0CB16D10440F036
:10245000B282A38391828082D9016D937C9309C05B
:102460000E5F1F4F800F911FF90191838083EB2D29
:10247000FA2FE114F10431F0D7011396FC93EE9397
:10248000129741C0F0931703E09316033CC06816FF
:10249000790608F43C017D0112960D90BC91A02DA7
:1024A000B7CF809114039091150388169906E1F433
:1024B00066167706C8F48091100290911102009779
:1024C00041F48DB79EB74091140250911502841BC0
:1024D000950BE817F907C8F4F0931503E09314037C
:1024E000F901718360830FC0CB010E9490107C01C1
:1024F000009759F0A801BE010E949B12CE010E94D4
:102500002811C70104C0CE0102C080E090E0DF9135
:10251000CF911F910F91FF90EF90DF90CF90BF90E0
:10252000AF909F908F907F906F90089581E090E0A2
:10253000F8940C94AB12FB01DC0102C001900D92E7
:1025400041505040D8F70895FB01DC0101900D92F5
:0A2550000020E1F70895F894FFCF92
:10255A000302030203020302030203020302030249
:10256A00000018038000000000009B0204023202EF
:10257A00E802630241025502000000007106E2040B
:08258A00203A20000D0A0000B8
:00000001FF
